{
  "abi": [
    {
      "inputs": [],
      "stateMutability": "nonpayable",
      "type": "constructor"
    },
    {
      "anonymous": false,
      "inputs": [
        {
          "indexed": true,
          "internalType": "address",
          "name": "user",
          "type": "address"
        }
      ],
      "name": "ScoreUpdated",
      "type": "event"
    },
    {
      "inputs": [
        {
          "internalType": "address",
          "name": "_user",
          "type": "address"
        }
      ],
      "name": "getDaoActions",
      "outputs": [
        {
          "components": [
            {
              "internalType": "uint256",
              "name": "approvals",
              "type": "uint256"
            },
            {
              "internalType": "uint256",
              "name": "proposals_submitted",
              "type": "uint256"
            },
            {
              "internalType": "uint256",
              "name": "votes",
              "type": "uint256"
            }
          ],
          "internalType": "struct SocialScore.DaoActions",
          "name": "",
          "type": "tuple"
        }
      ],
      "stateMutability": "view",
      "type": "function"
    },
    {
      "inputs": [
        {
          "internalType": "address",
          "name": "_user",
          "type": "address"
        }
      ],
      "name": "getDefiActions",
      "outputs": [
        {
          "components": [
            {
              "internalType": "uint256",
              "name": "loans",
              "type": "uint256"
            },
            {
              "internalType": "uint256",
              "name": "swaps",
              "type": "uint256"
            },
            {
              "internalType": "uint256",
              "name": "repayments",
              "type": "uint256"
            }
          ],
          "internalType": "struct SocialScore.DefiActions",
          "name": "",
          "type": "tuple"
        }
      ],
      "stateMutability": "view",
      "type": "function"
    },
    {
      "inputs": [
        {
          "internalType": "address",
          "name": "_user",
          "type": "address"
        }
      ],
      "name": "getGeneralActions",
      "outputs": [
        {
          "components": [
            {
              "internalType": "uint256",
              "name": "transactions",
              "type": "uint256"
            },
            {
              "internalType": "uint256",
              "name": "unique_addresses_interacted",
              "type": "uint256"
            }
          ],
          "internalType": "struct SocialScore.GeneralActions",
          "name": "",
          "type": "tuple"
        }
      ],
      "stateMutability": "view",
      "type": "function"
    },
    {
      "inputs": [],
      "name": "owner",
      "outputs": [
        {
          "internalType": "address",
          "name": "",
          "type": "address"
        }
      ],
      "stateMutability": "view",
      "type": "function"
    },
    {
      "inputs": [
        {
          "internalType": "address",
          "name": "_user",
          "type": "address"
        },
        {
          "internalType": "uint256",
          "name": "_approvals",
          "type": "uint256"
        },
        {
          "internalType": "uint256",
          "name": "_proposals_submitted",
          "type": "uint256"
        },
        {
          "internalType": "uint256",
          "name": "_votes",
          "type": "uint256"
        }
      ],
      "name": "updateDaoActions",
      "outputs": [],
      "stateMutability": "nonpayable",
      "type": "function"
    },
    {
      "inputs": [
        {
          "internalType": "address",
          "name": "_user",
          "type": "address"
        },
        {
          "internalType": "uint256",
          "name": "_loans",
          "type": "uint256"
        },
        {
          "internalType": "uint256",
          "name": "_swaps",
          "type": "uint256"
        },
        {
          "internalType": "uint256",
          "name": "_repayments",
          "type": "uint256"
        }
      ],
      "name": "updateDefiActions",
      "outputs": [],
      "stateMutability": "nonpayable",
      "type": "function"
    },
    {
      "inputs": [
        {
          "internalType": "address",
          "name": "_user",
          "type": "address"
        },
        {
          "internalType": "uint256",
          "name": "_transactions",
          "type": "uint256"
        },
        {
          "internalType": "uint256",
          "name": "_unique_addresses_interacted",
          "type": "uint256"
        }
      ],
      "name": "updateGeneralActions",
      "outputs": [],
      "stateMutability": "nonpayable",
      "type": "function"
    },
    {
      "inputs": [
        {
          "internalType": "address",
          "name": "_user",
          "type": "address"
        },
        {
          "internalType": "uint256",
          "name": "_token_transfers",
          "type": "uint256"
        },
        {
          "internalType": "uint256",
          "name": "_purchased",
          "type": "uint256"
        },
        {
          "internalType": "uint256",
          "name": "_held",
          "type": "uint256"
        }
      ],
      "name": "updateTokenActions",
      "outputs": [],
      "stateMutability": "nonpayable",
      "type": "function"
    },
    {
      "inputs": [
        {
          "internalType": "address",
          "name": "",
          "type": "address"
        }
      ],
      "name": "userScores",
      "outputs": [
        {
          "components": [
            {
              "internalType": "uint256",
              "name": "loans",
              "type": "uint256"
            },
            {
              "internalType": "uint256",
              "name": "swaps",
              "type": "uint256"
            },
            {
              "internalType": "uint256",
              "name": "repayments",
              "type": "uint256"
            }
          ],
          "internalType": "struct SocialScore.DefiActions",
          "name": "defi_actions",
          "type": "tuple"
        },
        {
          "components": [
            {
              "internalType": "uint256",
              "name": "approvals",
              "type": "uint256"
            },
            {
              "internalType": "uint256",
              "name": "proposals_submitted",
              "type": "uint256"
            },
            {
              "internalType": "uint256",
              "name": "votes",
              "type": "uint256"
            }
          ],
          "internalType": "struct SocialScore.DaoActions",
          "name": "dao_actions",
          "type": "tuple"
        },
        {
          "components": [
            {
              "internalType": "uint256",
              "name": "token_transfers",
              "type": "uint256"
            },
            {
              "internalType": "uint256",
              "name": "purchased",
              "type": "uint256"
            },
            {
              "internalType": "uint256",
              "name": "held",
              "type": "uint256"
            }
          ],
          "internalType": "struct SocialScore.TokenActions",
          "name": "token_actions",
          "type": "tuple"
        },
        {
          "components": [
            {
              "internalType": "uint256",
              "name": "transactions",
              "type": "uint256"
            },
            {
              "internalType": "uint256",
              "name": "unique_addresses_interacted",
              "type": "uint256"
            }
          ],
          "internalType": "struct SocialScore.GeneralActions",
          "name": "general_actions",
          "type": "tuple"
        }
      ],
      "stateMutability": "view",
      "type": "function"
    }
  ],
  "devdoc": {
    "kind": "dev",
    "methods": {},
    "version": 1
  },
  "evm": {
    "assembly": "    /* \"SocialScore.sol\":57:2833  contract SocialScore {... */\n  mstore(0x40, 0x80)\n    /* \"SocialScore.sol\":941:990  constructor() {... */\n  callvalue\n  dup1\n  iszero\n  tag_1\n  jumpi\n  0x00\n  dup1\n  revert\ntag_1:\n  pop\n    /* \"SocialScore.sol\":965:970  owner */\n  0x01\n    /* \"SocialScore.sol\":965:983  owner = msg.sender */\n  dup1\n  sload\n  not(sub(shl(0xa0, 0x01), 0x01))\n  and\n    /* \"SocialScore.sol\":973:983  msg.sender */\n  caller\n    /* \"SocialScore.sol\":965:983  owner = msg.sender */\n  or\n  swap1\n  sstore\n    /* \"SocialScore.sol\":57:2833  contract SocialScore {... */\n  dataSize(sub_0)\n  dup1\n  dataOffset(sub_0)\n  0x00\n  codecopy\n  0x00\n  return\nstop\n\nsub_0: assembly {\n        /* \"SocialScore.sol\":57:2833  contract SocialScore {... */\n      mstore(0x40, 0x80)\n      callvalue\n      dup1\n      iszero\n      tag_1\n      jumpi\n      0x00\n      dup1\n      revert\n    tag_1:\n      pop\n      jumpi(tag_2, lt(calldatasize, 0x04))\n      shr(0xe0, calldataload(0x00))\n      dup1\n      0x75f0d4df\n      gt\n      tag_12\n      jumpi\n      dup1\n      0x8fd850dc\n      gt\n      tag_13\n      jumpi\n      dup1\n      0x8fd850dc\n      eq\n      tag_9\n      jumpi\n      dup1\n      0xe0c64a8f\n      eq\n      tag_10\n      jumpi\n      dup1\n      0xf2abb9dd\n      eq\n      tag_11\n      jumpi\n      0x00\n      dup1\n      revert\n    tag_13:\n      dup1\n      0x75f0d4df\n      eq\n      tag_7\n      jumpi\n      dup1\n      0x8da5cb5b\n      eq\n      tag_8\n      jumpi\n      0x00\n      dup1\n      revert\n    tag_12:\n      dup1\n      0x1413d4c0\n      eq\n      tag_3\n      jumpi\n      dup1\n      0x17436090\n      eq\n      tag_4\n      jumpi\n      dup1\n      0x183cfcc8\n      eq\n      tag_5\n      jumpi\n      dup1\n      0x3e41d17d\n      eq\n      tag_6\n      jumpi\n    tag_2:\n      0x00\n      dup1\n      revert\n        /* \"SocialScore.sol\":705:752  mapping(address => UserScore) public userScores */\n    tag_3:\n      tag_14\n      tag_15\n      calldatasize\n      0x04\n      tag_16\n      jump\t// in\n    tag_15:\n      0x00\n      0x20\n      dup2\n      dup2\n      mstore\n      swap2\n      dup2\n      mstore\n      0x40\n      swap1\n      dup2\n      swap1\n      keccak256\n      dup2\n      mload\n      0x60\n      dup1\n      dup3\n      add\n      dup5\n      mstore\n      dup3\n      sload\n      dup3\n      mstore\n      0x01\n      dup4\n      add\n      sload\n      dup3\n      dup7\n      add\n      mstore\n      0x02\n      dup4\n      add\n      sload\n      dup3\n      dup6\n      add\n      mstore\n      dup4\n      mload\n      dup1\n      dup3\n      add\n      dup6\n      mstore\n      0x03\n      dup5\n      add\n      sload\n      dup2\n      mstore\n      0x04\n      dup5\n      add\n      sload\n      dup2\n      dup8\n      add\n      mstore\n      0x05\n      dup5\n      add\n      sload\n      dup2\n      dup7\n      add\n      mstore\n      dup5\n      mload\n      swap2\n      dup3\n      add\n      dup6\n      mstore\n      0x06\n      dup5\n      add\n      sload\n      dup3\n      mstore\n      0x07\n      dup5\n      add\n      sload\n      dup3\n      dup8\n      add\n      mstore\n      0x08\n      dup5\n      add\n      sload\n      dup3\n      dup7\n      add\n      mstore\n      dup5\n      mload\n      dup1\n      dup7\n      add\n      swap1\n      swap6\n      mstore\n      0x09\n      dup5\n      add\n      sload\n      dup6\n      mstore\n      0x0a\n      swap1\n      swap4\n      add\n      sload\n      swap5\n      dup5\n      add\n      swap5\n      swap1\n      swap5\n      mstore\n      swap3\n      swap1\n      swap2\n      dup5\n      jump\n    tag_14:\n      0x40\n      dup1\n      mload\n        /* \"#utility.yul\":483:495   */\n      dup6\n      mload\n        /* \"#utility.yul\":471:496   */\n      dup2\n      mstore\n        /* \"#utility.yul\":545:549   */\n      0x20\n        /* \"#utility.yul\":534:550   */\n      dup1\n      dup8\n      add\n        /* \"#utility.yul\":528:551   */\n      mload\n        /* \"#utility.yul\":512:526   */\n      dup2\n      dup4\n      add\n        /* \"#utility.yul\":505:552   */\n      mstore\n        /* \"#utility.yul\":590:606   */\n      swap6\n      dup3\n      add\n        /* \"#utility.yul\":584:607   */\n      mload\n        /* \"#utility.yul\":568:582   */\n      dup2\n      dup4\n      add\n        /* \"#utility.yul\":561:608   */\n      mstore\n        /* \"#utility.yul\":483:495   */\n      dup5\n      mload\n        /* \"#utility.yul\":1340:1342   */\n      0x60\n        /* \"#utility.yul\":1325:1343   */\n      dup3\n      add\n        /* \"#utility.yul\":471:496   */\n      mstore\n        /* \"#utility.yul\":534:550   */\n      dup5\n      dup7\n      add\n        /* \"#utility.yul\":528:551   */\n      mload\n        /* \"#utility.yul\":512:526   */\n      0x80\n      dup3\n      add\n        /* \"#utility.yul\":505:552   */\n      mstore\n        /* \"#utility.yul\":590:606   */\n      swap4\n      dup2\n      add\n        /* \"#utility.yul\":584:607   */\n      mload\n        /* \"#utility.yul\":568:582   */\n      0xa0\n      dup6\n      add\n        /* \"#utility.yul\":561:608   */\n      mstore\n        /* \"#utility.yul\":483:495   */\n      dup3\n      mload\n        /* \"#utility.yul\":1406:1409   */\n      0xc0\n        /* \"#utility.yul\":1391:1410   */\n      dup6\n      add\n        /* \"#utility.yul\":471:496   */\n      mstore\n        /* \"#utility.yul\":534:550   */\n      dup3\n      dup6\n      add\n        /* \"#utility.yul\":528:551   */\n      mload\n        /* \"#utility.yul\":512:526   */\n      0xe0\n      dup6\n      add\n        /* \"#utility.yul\":505:552   */\n      mstore\n        /* \"#utility.yul\":590:606   */\n      swap2\n      swap1\n      swap2\n      add\n        /* \"#utility.yul\":584:607   */\n      mload\n        /* \"#utility.yul\":568:582   */\n      0x0100\n      dup4\n      add\n        /* \"#utility.yul\":561:608   */\n      mstore\n        /* \"#utility.yul\":699:711   */\n      dup1\n      mload\n        /* \"#utility.yul\":1476:1479   */\n      0x0120\n        /* \"#utility.yul\":1461:1480   */\n      dup4\n      add\n        /* \"#utility.yul\":687:712   */\n      mstore\n        /* \"#utility.yul\":750:766   */\n      swap1\n      swap2\n      add\n        /* \"#utility.yul\":744:767   */\n      mload\n        /* \"#utility.yul\":728:742   */\n      0x0140\n      dup3\n      add\n        /* \"#utility.yul\":721:768   */\n      mstore\n        /* \"#utility.yul\":1217:1220   */\n      0x0160\n        /* \"#utility.yul\":1202:1221   */\n      add\n        /* \"SocialScore.sol\":705:752  mapping(address => UserScore) public userScores */\n    tag_18:\n      mload(0x40)\n      dup1\n      swap2\n      sub\n      swap1\n      return\n        /* \"SocialScore.sol\":996:1318  function updateDefiActions(... */\n    tag_4:\n      tag_20\n      tag_21\n      calldatasize\n      0x04\n      tag_22\n      jump\t// in\n    tag_21:\n      tag_23\n      jump\t// in\n    tag_20:\n      stop\n        /* \"SocialScore.sol\":1324:1669  function updateDaoActions(... */\n    tag_5:\n      tag_20\n      tag_25\n      calldatasize\n      0x04\n      tag_22\n      jump\t// in\n    tag_25:\n      tag_26\n      jump\t// in\n        /* \"SocialScore.sol\":2363:2513  function getDefiActions(... */\n    tag_6:\n      tag_27\n      tag_28\n      calldatasize\n      0x04\n      tag_16\n      jump\t// in\n    tag_28:\n      tag_29\n      jump\t// in\n    tag_27:\n      mload(0x40)\n      tag_18\n      swap2\n      swap1\n      tag_31\n      jump\t// in\n        /* \"SocialScore.sol\":2519:2666  function getDaoActions(... */\n    tag_7:\n      tag_27\n      tag_33\n      calldatasize\n      0x04\n      tag_16\n      jump\t// in\n    tag_33:\n      tag_34\n      jump\t// in\n        /* \"SocialScore.sol\":805:825  address public owner */\n    tag_8:\n      sload(0x01)\n      tag_37\n      swap1\n      sub(shl(0xa0, 0x01), 0x01)\n      and\n      dup2\n      jump\n    tag_37:\n      mload(0x40)\n      sub(shl(0xa0, 0x01), 0x01)\n        /* \"#utility.yul\":2566:2621   */\n      swap1\n      swap2\n      and\n        /* \"#utility.yul\":2548:2622   */\n      dup2\n      mstore\n        /* \"#utility.yul\":2536:2538   */\n      0x20\n        /* \"#utility.yul\":2521:2539   */\n      add\n        /* \"SocialScore.sol\":805:825  address public owner */\n      tag_18\n        /* \"#utility.yul\":2402:2628   */\n      jump\n        /* \"SocialScore.sol\":1675:2016  function updateTokenActions(... */\n    tag_9:\n      tag_20\n      tag_42\n      calldatasize\n      0x04\n      tag_22\n      jump\t// in\n    tag_42:\n      tag_43\n      jump\t// in\n        /* \"SocialScore.sol\":2672:2831  function getGeneralActions(... */\n    tag_10:\n      tag_44\n      tag_45\n      calldatasize\n      0x04\n      tag_16\n      jump\t// in\n    tag_45:\n      0x40\n      dup1\n      mload\n      dup1\n      dup3\n      add\n      swap1\n      swap2\n      mstore\n      0x00\n      dup1\n      dup3\n      mstore\n      0x20\n      dup3\n      add\n      mstore\n      pop\n      sub(shl(0xa0, 0x01), 0x01)\n        /* \"SocialScore.sol\":2791:2808  userScores[_user] */\n      and\n        /* \"SocialScore.sol\":2791:2801  userScores */\n      0x00\n        /* \"SocialScore.sol\":2791:2808  userScores[_user] */\n      swap1\n      dup2\n      mstore\n      0x20\n      dup2\n      dup2\n      mstore\n      0x40\n      swap2\n      dup3\n      swap1\n      keccak256\n        /* \"SocialScore.sol\":2784:2824  return userScores[_user].general_actions */\n      dup3\n      mload\n      dup1\n      dup5\n      add\n      swap1\n      swap4\n      mstore\n        /* \"SocialScore.sol\":2791:2824  userScores[_user].general_actions */\n      0x09\n      dup2\n      add\n        /* \"SocialScore.sol\":2784:2824  return userScores[_user].general_actions */\n      sload\n      dup4\n      mstore\n      0x0a\n      add\n      sload\n      swap1\n      dup3\n      add\n      mstore\n      swap1\n        /* \"SocialScore.sol\":2672:2831  function getGeneralActions(... */\n      jump\n    tag_44:\n      mload(0x40)\n      tag_18\n      swap2\n      swap1\n      tag_48\n      jump\t// in\n        /* \"SocialScore.sol\":2022:2357  function updateGeneralActions(... */\n    tag_11:\n      tag_20\n      tag_50\n      calldatasize\n      0x04\n      tag_51\n      jump\t// in\n    tag_50:\n      tag_52\n      jump\t// in\n        /* \"SocialScore.sol\":996:1318  function updateDefiActions(... */\n    tag_23:\n        /* \"SocialScore.sol\":885:890  owner */\n      and(sub(shl(0xa0, 0x01), 0x01), sload(0x01))\n        /* \"SocialScore.sol\":871:881  msg.sender */\n      caller\n        /* \"SocialScore.sol\":871:890  msg.sender == owner */\n      eq\n        /* \"SocialScore.sol\":863:917  require(msg.sender == owner, 'Not the contract owner') */\n      tag_54\n      jumpi\n      mload(0x40)\n      shl(0xe5, 0x461bcd)\n      dup2\n      mstore\n        /* \"#utility.yul\":3430:3432   */\n      0x20\n        /* \"SocialScore.sol\":863:917  require(msg.sender == owner, 'Not the contract owner') */\n      0x04\n      dup3\n      add\n        /* \"#utility.yul\":3412:3433   */\n      mstore\n        /* \"#utility.yul\":3469:3471   */\n      0x16\n        /* \"#utility.yul\":3449:3467   */\n      0x24\n      dup3\n      add\n        /* \"#utility.yul\":3442:3472   */\n      mstore\n      shl(0x51, 0x2737ba103a34329031b7b73a3930b1ba1037bbb732b9)\n        /* \"#utility.yul\":3488:3506   */\n      0x44\n      dup3\n      add\n        /* \"#utility.yul\":3481:3533   */\n      mstore\n        /* \"#utility.yul\":3550:3568   */\n      0x64\n      add\n        /* \"SocialScore.sol\":863:917  require(msg.sender == owner, 'Not the contract owner') */\n    tag_55:\n      mload(0x40)\n      dup1\n      swap2\n      sub\n      swap1\n      revert\n    tag_54:\n        /* \"SocialScore.sol\":1191:1277  DefiActions(... */\n      0x40\n      dup1\n      mload\n      0x60\n      dup2\n      add\n      dup3\n      mstore\n      dup5\n      dup2\n      mstore\n      0x20\n      dup1\n      dup3\n      add\n      dup6\n      dup2\n      mstore\n      dup3\n      dup5\n      add\n      dup6\n      dup2\n      mstore\n      sub(shl(0xa0, 0x01), 0x01)\n        /* \"SocialScore.sol\":1158:1175  userScores[_user] */\n      dup10\n      and\n      0x00\n      dup2\n      dup2\n      mstore\n      swap4\n      dup5\n      swap1\n      mstore\n      dup6\n      dup5\n      keccak256\n        /* \"SocialScore.sol\":1158:1277  userScores[_user].defi_actions = DefiActions(... */\n      swap5\n      mload\n      dup6\n      sstore\n      swap2\n      mload\n      0x01\n      dup6\n      add\n      sstore\n      mload\n      0x02\n      swap1\n      swap4\n      add\n      swap3\n      swap1\n      swap3\n      sstore\n        /* \"SocialScore.sol\":1292:1311  ScoreUpdated(_user) */\n      swap2\n      mload\n        /* \"SocialScore.sol\":1158:1175  userScores[_user] */\n      swap1\n      swap2\n        /* \"SocialScore.sol\":1292:1311  ScoreUpdated(_user) */\n      0xe1dda2a662a12b367401eb9a8eea1a64eaf52a0498289f48cecf72fc56be5cdc\n      swap2\n      log2\n        /* \"SocialScore.sol\":996:1318  function updateDefiActions(... */\n      pop\n      pop\n      pop\n      pop\n      jump\t// out\n        /* \"SocialScore.sol\":1324:1669  function updateDaoActions(... */\n    tag_26:\n        /* \"SocialScore.sol\":885:890  owner */\n      and(sub(shl(0xa0, 0x01), 0x01), sload(0x01))\n        /* \"SocialScore.sol\":871:881  msg.sender */\n      caller\n        /* \"SocialScore.sol\":871:890  msg.sender == owner */\n      eq\n        /* \"SocialScore.sol\":863:917  require(msg.sender == owner, 'Not the contract owner') */\n      tag_59\n      jumpi\n      mload(0x40)\n      shl(0xe5, 0x461bcd)\n      dup2\n      mstore\n        /* \"#utility.yul\":3430:3432   */\n      0x20\n        /* \"SocialScore.sol\":863:917  require(msg.sender == owner, 'Not the contract owner') */\n      0x04\n      dup3\n      add\n        /* \"#utility.yul\":3412:3433   */\n      mstore\n        /* \"#utility.yul\":3469:3471   */\n      0x16\n        /* \"#utility.yul\":3449:3467   */\n      0x24\n      dup3\n      add\n        /* \"#utility.yul\":3442:3472   */\n      mstore\n      shl(0x51, 0x2737ba103a34329031b7b73a3930b1ba1037bbb732b9)\n        /* \"#utility.yul\":3488:3506   */\n      0x44\n      dup3\n      add\n        /* \"#utility.yul\":3481:3533   */\n      mstore\n        /* \"#utility.yul\":3550:3568   */\n      0x64\n      add\n        /* \"SocialScore.sol\":863:917  require(msg.sender == owner, 'Not the contract owner') */\n      tag_55\n        /* \"#utility.yul\":3228:3574   */\n      jump\n        /* \"SocialScore.sol\":863:917  require(msg.sender == owner, 'Not the contract owner') */\n    tag_59:\n        /* \"SocialScore.sol\":1530:1628  DaoActions(... */\n      0x40\n      dup1\n      mload\n      0x60\n      dup2\n      add\n      dup3\n      mstore\n      dup5\n      dup2\n      mstore\n      0x20\n      dup1\n      dup3\n      add\n      dup6\n      dup2\n      mstore\n      dup3\n      dup5\n      add\n      dup6\n      dup2\n      mstore\n      sub(shl(0xa0, 0x01), 0x01)\n        /* \"SocialScore.sol\":1498:1515  userScores[_user] */\n      dup10\n      and\n      0x00\n      dup2\n      dup2\n      mstore\n      swap4\n      dup5\n      swap1\n      mstore\n      dup6\n      dup5\n      keccak256\n        /* \"SocialScore.sol\":1498:1628  userScores[_user].dao_actions = DaoActions(... */\n      swap5\n      mload\n        /* \"SocialScore.sol\":1498:1527  userScores[_user].dao_actions */\n      0x03\n      dup7\n      add\n        /* \"SocialScore.sol\":1498:1628  userScores[_user].dao_actions = DaoActions(... */\n      sstore\n      swap2\n      mload\n      0x04\n      dup6\n      add\n      sstore\n      mload\n      0x05\n      swap1\n      swap4\n      add\n      swap3\n      swap1\n      swap3\n      sstore\n        /* \"SocialScore.sol\":1643:1662  ScoreUpdated(_user) */\n      swap2\n      mload\n        /* \"SocialScore.sol\":1498:1515  userScores[_user] */\n      swap1\n      swap2\n        /* \"SocialScore.sol\":1643:1662  ScoreUpdated(_user) */\n      0xe1dda2a662a12b367401eb9a8eea1a64eaf52a0498289f48cecf72fc56be5cdc\n      swap2\n      log2\n        /* \"SocialScore.sol\":1324:1669  function updateDaoActions(... */\n      pop\n      pop\n      pop\n      pop\n      jump\t// out\n        /* \"SocialScore.sol\":2363:2513  function getDefiActions(... */\n    tag_29:\n        /* \"SocialScore.sol\":2439:2457  DefiActions memory */\n      tag_62\n      mload(0x40)\n      dup1\n      0x60\n      add\n      0x40\n      mstore\n      dup1\n      0x00\n      dup2\n      mstore\n      0x20\n      add\n      0x00\n      dup2\n      mstore\n      0x20\n      add\n      0x00\n      dup2\n      mstore\n      pop\n      swap1\n      jump\n    tag_62:\n      pop\n      sub(shl(0xa0, 0x01), 0x01)\n        /* \"SocialScore.sol\":2476:2493  userScores[_user] */\n      and\n        /* \"SocialScore.sol\":2476:2486  userScores */\n      0x00\n        /* \"SocialScore.sol\":2476:2493  userScores[_user] */\n      swap1\n      dup2\n      mstore\n      0x20\n      dup2\n      dup2\n      mstore\n      0x40\n      swap2\n      dup3\n      swap1\n      keccak256\n        /* \"SocialScore.sol\":2469:2506  return userScores[_user].defi_actions */\n      dup3\n      mload\n      0x60\n      dup2\n      add\n      dup5\n      mstore\n      dup2\n      sload\n      dup2\n      mstore\n      0x01\n      dup3\n      add\n      sload\n      swap3\n      dup2\n      add\n      swap3\n      swap1\n      swap3\n      mstore\n      0x02\n      add\n      sload\n      swap2\n      dup2\n      add\n      swap2\n      swap1\n      swap2\n      mstore\n      swap1\n        /* \"SocialScore.sol\":2363:2513  function getDefiActions(... */\n      jump\t// out\n        /* \"SocialScore.sol\":2519:2666  function getDaoActions(... */\n    tag_34:\n        /* \"SocialScore.sol\":2594:2611  DaoActions memory */\n      tag_65\n      mload(0x40)\n      dup1\n      0x60\n      add\n      0x40\n      mstore\n      dup1\n      0x00\n      dup2\n      mstore\n      0x20\n      add\n      0x00\n      dup2\n      mstore\n      0x20\n      add\n      0x00\n      dup2\n      mstore\n      pop\n      swap1\n      jump\n    tag_65:\n      pop\n      sub(shl(0xa0, 0x01), 0x01)\n        /* \"SocialScore.sol\":2630:2647  userScores[_user] */\n      and\n        /* \"SocialScore.sol\":2630:2640  userScores */\n      0x00\n        /* \"SocialScore.sol\":2630:2647  userScores[_user] */\n      swap1\n      dup2\n      mstore\n      0x20\n      dup2\n      dup2\n      mstore\n      0x40\n      swap2\n      dup3\n      swap1\n      keccak256\n        /* \"SocialScore.sol\":2623:2659  return userScores[_user].dao_actions */\n      dup3\n      mload\n      0x60\n      dup2\n      add\n      dup5\n      mstore\n        /* \"SocialScore.sol\":2630:2659  userScores[_user].dao_actions */\n      0x03\n      dup3\n      add\n        /* \"SocialScore.sol\":2623:2659  return userScores[_user].dao_actions */\n      sload\n      dup2\n      mstore\n      0x04\n      dup3\n      add\n      sload\n      swap3\n      dup2\n      add\n      swap3\n      swap1\n      swap3\n      mstore\n      0x05\n      add\n      sload\n      swap2\n      dup2\n      add\n      swap2\n      swap1\n      swap2\n      mstore\n      swap1\n        /* \"SocialScore.sol\":2519:2666  function getDaoActions(... */\n      jump\t// out\n        /* \"SocialScore.sol\":1675:2016  function updateTokenActions(... */\n    tag_43:\n        /* \"SocialScore.sol\":885:890  owner */\n      and(sub(shl(0xa0, 0x01), 0x01), sload(0x01))\n        /* \"SocialScore.sol\":871:881  msg.sender */\n      caller\n        /* \"SocialScore.sol\":871:890  msg.sender == owner */\n      eq\n        /* \"SocialScore.sol\":863:917  require(msg.sender == owner, 'Not the contract owner') */\n      tag_69\n      jumpi\n      mload(0x40)\n      shl(0xe5, 0x461bcd)\n      dup2\n      mstore\n        /* \"#utility.yul\":3430:3432   */\n      0x20\n        /* \"SocialScore.sol\":863:917  require(msg.sender == owner, 'Not the contract owner') */\n      0x04\n      dup3\n      add\n        /* \"#utility.yul\":3412:3433   */\n      mstore\n        /* \"#utility.yul\":3469:3471   */\n      0x16\n        /* \"#utility.yul\":3449:3467   */\n      0x24\n      dup3\n      add\n        /* \"#utility.yul\":3442:3472   */\n      mstore\n      shl(0x51, 0x2737ba103a34329031b7b73a3930b1ba1037bbb732b9)\n        /* \"#utility.yul\":3488:3506   */\n      0x44\n      dup3\n      add\n        /* \"#utility.yul\":3481:3533   */\n      mstore\n        /* \"#utility.yul\":3550:3568   */\n      0x64\n      add\n        /* \"SocialScore.sol\":863:917  require(msg.sender == owner, 'Not the contract owner') */\n      tag_55\n        /* \"#utility.yul\":3228:3574   */\n      jump\n        /* \"SocialScore.sol\":863:917  require(msg.sender == owner, 'Not the contract owner') */\n    tag_69:\n        /* \"SocialScore.sol\":1880:1975  TokenActions(... */\n      0x40\n      dup1\n      mload\n      0x60\n      dup2\n      add\n      dup3\n      mstore\n      dup5\n      dup2\n      mstore\n      0x20\n      dup1\n      dup3\n      add\n      dup6\n      dup2\n      mstore\n      dup3\n      dup5\n      add\n      dup6\n      dup2\n      mstore\n      sub(shl(0xa0, 0x01), 0x01)\n        /* \"SocialScore.sol\":1846:1863  userScores[_user] */\n      dup10\n      and\n      0x00\n      dup2\n      dup2\n      mstore\n      swap4\n      dup5\n      swap1\n      mstore\n      dup6\n      dup5\n      keccak256\n        /* \"SocialScore.sol\":1846:1975  userScores[_user].token_actions = TokenActions(... */\n      swap5\n      mload\n        /* \"SocialScore.sol\":1846:1877  userScores[_user].token_actions */\n      0x06\n      dup7\n      add\n        /* \"SocialScore.sol\":1846:1975  userScores[_user].token_actions = TokenActions(... */\n      sstore\n      swap2\n      mload\n      0x07\n      dup6\n      add\n      sstore\n      mload\n      0x08\n      swap1\n      swap4\n      add\n      swap3\n      swap1\n      swap3\n      sstore\n        /* \"SocialScore.sol\":1990:2009  ScoreUpdated(_user) */\n      swap2\n      mload\n        /* \"SocialScore.sol\":1846:1863  userScores[_user] */\n      swap1\n      swap2\n        /* \"SocialScore.sol\":1990:2009  ScoreUpdated(_user) */\n      0xe1dda2a662a12b367401eb9a8eea1a64eaf52a0498289f48cecf72fc56be5cdc\n      swap2\n      log2\n        /* \"SocialScore.sol\":1675:2016  function updateTokenActions(... */\n      pop\n      pop\n      pop\n      pop\n      jump\t// out\n        /* \"SocialScore.sol\":2022:2357  function updateGeneralActions(... */\n    tag_52:\n        /* \"SocialScore.sol\":885:890  owner */\n      and(sub(shl(0xa0, 0x01), 0x01), sload(0x01))\n        /* \"SocialScore.sol\":871:881  msg.sender */\n      caller\n        /* \"SocialScore.sol\":871:890  msg.sender == owner */\n      eq\n        /* \"SocialScore.sol\":863:917  require(msg.sender == owner, 'Not the contract owner') */\n      tag_76\n      jumpi\n      mload(0x40)\n      shl(0xe5, 0x461bcd)\n      dup2\n      mstore\n        /* \"#utility.yul\":3430:3432   */\n      0x20\n        /* \"SocialScore.sol\":863:917  require(msg.sender == owner, 'Not the contract owner') */\n      0x04\n      dup3\n      add\n        /* \"#utility.yul\":3412:3433   */\n      mstore\n        /* \"#utility.yul\":3469:3471   */\n      0x16\n        /* \"#utility.yul\":3449:3467   */\n      0x24\n      dup3\n      add\n        /* \"#utility.yul\":3442:3472   */\n      mstore\n      shl(0x51, 0x2737ba103a34329031b7b73a3930b1ba1037bbb732b9)\n        /* \"#utility.yul\":3488:3506   */\n      0x44\n      dup3\n      add\n        /* \"#utility.yul\":3481:3533   */\n      mstore\n        /* \"#utility.yul\":3550:3568   */\n      0x64\n      add\n        /* \"SocialScore.sol\":863:917  require(msg.sender == owner, 'Not the contract owner') */\n      tag_55\n        /* \"#utility.yul\":3228:3574   */\n      jump\n        /* \"SocialScore.sol\":863:917  require(msg.sender == owner, 'Not the contract owner') */\n    tag_76:\n        /* \"SocialScore.sol\":2223:2316  GeneralActions(... */\n      0x40\n      dup1\n      mload\n      dup1\n      dup3\n      add\n      dup3\n      mstore\n      dup4\n      dup2\n      mstore\n      0x20\n      dup1\n      dup3\n      add\n      dup5\n      dup2\n      mstore\n      sub(shl(0xa0, 0x01), 0x01)\n        /* \"SocialScore.sol\":2187:2204  userScores[_user] */\n      dup8\n      and\n      0x00\n      dup2\n      dup2\n      mstore\n      swap3\n      dup4\n      swap1\n      mstore\n      dup5\n      dup4\n      keccak256\n        /* \"SocialScore.sol\":2187:2316  userScores[_user].general_actions = GeneralActions(... */\n      swap4\n      mload\n        /* \"SocialScore.sol\":2187:2220  userScores[_user].general_actions */\n      0x09\n      dup6\n      add\n        /* \"SocialScore.sol\":2187:2316  userScores[_user].general_actions = GeneralActions(... */\n      sstore\n      swap1\n      mload\n      0x0a\n      swap1\n      swap4\n      add\n      swap3\n      swap1\n      swap3\n      sstore\n        /* \"SocialScore.sol\":2331:2350  ScoreUpdated(_user) */\n      swap2\n      mload\n        /* \"SocialScore.sol\":2187:2204  userScores[_user] */\n      swap1\n      swap2\n        /* \"SocialScore.sol\":2331:2350  ScoreUpdated(_user) */\n      0xe1dda2a662a12b367401eb9a8eea1a64eaf52a0498289f48cecf72fc56be5cdc\n      swap2\n      log2\n        /* \"SocialScore.sol\":2022:2357  function updateGeneralActions(... */\n      pop\n      pop\n      pop\n      jump\t// out\n        /* \"#utility.yul\":14:210   */\n    tag_79:\n        /* \"#utility.yul\":82:102   */\n      dup1\n      calldataload\n      sub(shl(0xa0, 0x01), 0x01)\n        /* \"#utility.yul\":131:185   */\n      dup2\n      and\n        /* \"#utility.yul\":121:186   */\n      dup2\n      eq\n        /* \"#utility.yul\":111:204   */\n      tag_84\n      jumpi\n        /* \"#utility.yul\":200:201   */\n      0x00\n        /* \"#utility.yul\":197:198   */\n      dup1\n        /* \"#utility.yul\":190:202   */\n      revert\n        /* \"#utility.yul\":111:204   */\n    tag_84:\n        /* \"#utility.yul\":14:210   */\n      swap2\n      swap1\n      pop\n      jump\t// out\n        /* \"#utility.yul\":215:401   */\n    tag_16:\n        /* \"#utility.yul\":274:280   */\n      0x00\n        /* \"#utility.yul\":327:329   */\n      0x20\n        /* \"#utility.yul\":315:324   */\n      dup3\n        /* \"#utility.yul\":306:313   */\n      dup5\n        /* \"#utility.yul\":302:325   */\n      sub\n        /* \"#utility.yul\":298:330   */\n      slt\n        /* \"#utility.yul\":295:347   */\n      iszero\n      tag_86\n      jumpi\n        /* \"#utility.yul\":343:344   */\n      0x00\n        /* \"#utility.yul\":340:341   */\n      dup1\n        /* \"#utility.yul\":333:345   */\n      revert\n        /* \"#utility.yul\":295:347   */\n    tag_86:\n        /* \"#utility.yul\":366:395   */\n      tag_87\n        /* \"#utility.yul\":385:394   */\n      dup3\n        /* \"#utility.yul\":366:395   */\n      tag_79\n      jump\t// in\n    tag_87:\n        /* \"#utility.yul\":356:395   */\n      swap4\n        /* \"#utility.yul\":215:401   */\n      swap3\n      pop\n      pop\n      pop\n      jump\t// out\n        /* \"#utility.yul\":1492:1883   */\n    tag_22:\n        /* \"#utility.yul\":1578:1584   */\n      0x00\n        /* \"#utility.yul\":1586:1592   */\n      dup1\n        /* \"#utility.yul\":1594:1600   */\n      0x00\n        /* \"#utility.yul\":1602:1608   */\n      dup1\n        /* \"#utility.yul\":1655:1658   */\n      0x80\n        /* \"#utility.yul\":1643:1652   */\n      dup6\n        /* \"#utility.yul\":1634:1641   */\n      dup8\n        /* \"#utility.yul\":1630:1653   */\n      sub\n        /* \"#utility.yul\":1626:1659   */\n      slt\n        /* \"#utility.yul\":1623:1676   */\n      iszero\n      tag_96\n      jumpi\n        /* \"#utility.yul\":1672:1673   */\n      0x00\n        /* \"#utility.yul\":1669:1670   */\n      dup1\n        /* \"#utility.yul\":1662:1674   */\n      revert\n        /* \"#utility.yul\":1623:1676   */\n    tag_96:\n        /* \"#utility.yul\":1695:1724   */\n      tag_97\n        /* \"#utility.yul\":1714:1723   */\n      dup6\n        /* \"#utility.yul\":1695:1724   */\n      tag_79\n      jump\t// in\n    tag_97:\n        /* \"#utility.yul\":1685:1724   */\n      swap7\n        /* \"#utility.yul\":1771:1773   */\n      0x20\n        /* \"#utility.yul\":1756:1774   */\n      dup7\n      add\n        /* \"#utility.yul\":1743:1775   */\n      calldataload\n      swap7\n      pop\n        /* \"#utility.yul\":1822:1824   */\n      0x40\n        /* \"#utility.yul\":1807:1825   */\n      dup7\n      add\n        /* \"#utility.yul\":1794:1826   */\n      calldataload\n      swap6\n        /* \"#utility.yul\":1873:1875   */\n      0x60\n        /* \"#utility.yul\":1858:1876   */\n      add\n        /* \"#utility.yul\":1845:1877   */\n      calldataload\n      swap5\n      pop\n        /* \"#utility.yul\":1492:1883   */\n      swap3\n      pop\n      pop\n      pop\n      jump\t// out\n        /* \"#utility.yul\":1888:2140   */\n    tag_31:\n        /* \"#utility.yul\":483:495   */\n      dup2\n      mload\n        /* \"#utility.yul\":471:496   */\n      dup2\n      mstore\n        /* \"#utility.yul\":545:549   */\n      0x20\n        /* \"#utility.yul\":534:550   */\n      dup1\n      dup4\n      add\n        /* \"#utility.yul\":528:551   */\n      mload\n        /* \"#utility.yul\":512:526   */\n      swap1\n      dup3\n      add\n        /* \"#utility.yul\":505:552   */\n      mstore\n        /* \"#utility.yul\":601:605   */\n      0x40\n        /* \"#utility.yul\":590:606   */\n      dup1\n      dup4\n      add\n        /* \"#utility.yul\":584:607   */\n      mload\n        /* \"#utility.yul\":568:582   */\n      swap1\n      dup3\n      add\n        /* \"#utility.yul\":561:608   */\n      mstore\n        /* \"#utility.yul\":2074:2076   */\n      0x60\n        /* \"#utility.yul\":2059:2077   */\n      dup2\n      add\n        /* \"#utility.yul\":2086:2134   */\n    tag_99:\n        /* \"#utility.yul\":1888:2140   */\n      swap3\n      swap2\n      pop\n      pop\n      jump\t// out\n        /* \"#utility.yul\":2633:2896   */\n    tag_48:\n        /* \"#utility.yul\":699:711   */\n      dup2\n      mload\n        /* \"#utility.yul\":687:712   */\n      dup2\n      mstore\n        /* \"#utility.yul\":761:765   */\n      0x20\n        /* \"#utility.yul\":750:766   */\n      dup1\n      dup4\n      add\n        /* \"#utility.yul\":744:767   */\n      mload\n        /* \"#utility.yul\":728:742   */\n      swap1\n      dup3\n      add\n        /* \"#utility.yul\":721:768   */\n      mstore\n        /* \"#utility.yul\":2827:2829   */\n      0x40\n        /* \"#utility.yul\":2812:2830   */\n      dup2\n      add\n        /* \"#utility.yul\":2839:2890   */\n      tag_99\n        /* \"#utility.yul\":619:774   */\n      jump\n        /* \"#utility.yul\":2901:3223   */\n    tag_51:\n        /* \"#utility.yul\":2978:2984   */\n      0x00\n        /* \"#utility.yul\":2986:2992   */\n      dup1\n        /* \"#utility.yul\":2994:3000   */\n      0x00\n        /* \"#utility.yul\":3047:3049   */\n      0x60\n        /* \"#utility.yul\":3035:3044   */\n      dup5\n        /* \"#utility.yul\":3026:3033   */\n      dup7\n        /* \"#utility.yul\":3022:3045   */\n      sub\n        /* \"#utility.yul\":3018:3050   */\n      slt\n        /* \"#utility.yul\":3015:3067   */\n      iszero\n      tag_106\n      jumpi\n        /* \"#utility.yul\":3063:3064   */\n      0x00\n        /* \"#utility.yul\":3060:3061   */\n      dup1\n        /* \"#utility.yul\":3053:3065   */\n      revert\n        /* \"#utility.yul\":3015:3067   */\n    tag_106:\n        /* \"#utility.yul\":3086:3115   */\n      tag_107\n        /* \"#utility.yul\":3105:3114   */\n      dup5\n        /* \"#utility.yul\":3086:3115   */\n      tag_79\n      jump\t// in\n    tag_107:\n        /* \"#utility.yul\":3076:3115   */\n      swap6\n        /* \"#utility.yul\":3162:3164   */\n      0x20\n        /* \"#utility.yul\":3147:3165   */\n      dup6\n      add\n        /* \"#utility.yul\":3134:3166   */\n      calldataload\n      swap6\n      pop\n        /* \"#utility.yul\":3213:3215   */\n      0x40\n        /* \"#utility.yul\":3198:3216   */\n      swap1\n      swap5\n      add\n        /* \"#utility.yul\":3185:3217   */\n      calldataload\n      swap4\n        /* \"#utility.yul\":2901:3223   */\n      swap3\n      pop\n      pop\n      pop\n      jump\t// out\n\n    auxdata: 0xa26469706673582212209e81d0139824f95bbe87e79b1d65fbd49cff4c97560855a180fedc90c7dc946264736f6c63430008110033\n}\n",
    "bytecode": {
      "linkReferences": {},
      "object": "608060405234801561001057600080fd5b50600180546001600160a01b031916331790556107c1806100326000396000f3fe608060405234801561001057600080fd5b50600436106100a35760003560e01c806375f0d4df116100765780638fd850dc1161005b5780638fd850dc1461023b578063e0c64a8f1461024e578063f2abb9dd146102b157600080fd5b806375f0d4df146101fd5780638da5cb5b1461021057600080fd5b80631413d4c0146100a857806317436090146101b5578063183cfcc8146101ca5780633e41d17d146101dd575b600080fd5b6101476100b63660046106c3565b600060208181529181526040908190208151606080820184528254825260018301548286015260028301548285015283518082018552600384015481526004840154818701526005840154818601528451918201855260068401548252600784015482870152600884015482860152845180860190955260098401548552600a909301549484019490945292909184565b6040805185518152602080870151818301529582015181830152845160608201528486015160808201529381015160a0850152825160c08501528285015160e08501529190910151610100830152805161012083015290910151610140820152610160015b60405180910390f35b6101c86101c33660046106e5565b6102c4565b005b6101c86101d83660046106e5565b61038f565b6101f06101eb3660046106c3565b610458565b6040516101ac919061071e565b6101f061020b3660046106c3565b6104bc565b600154610223906001600160a01b031681565b6040516001600160a01b0390911681526020016101ac565b6101c86102493660046106e5565b610523565b6102a461025c3660046106c3565b6040805180820190915260008082526020820152506001600160a01b031660009081526020818152604091829020825180840190935260098101548352600a01549082015290565b6040516101ac9190610741565b6101c86102bf366004610758565b6105ec565b6001546001600160a01b0316331461031c5760405162461bcd60e51b81526020600482015260166024820152752737ba103a34329031b7b73a3930b1ba1037bbb732b960511b60448201526064015b60405180910390fd5b6040805160608101825284815260208082018581528284018581526001600160a01b038916600081815293849052858420945185559151600185015551600290930192909255915190917fe1dda2a662a12b367401eb9a8eea1a64eaf52a0498289f48cecf72fc56be5cdc91a250505050565b6001546001600160a01b031633146103e25760405162461bcd60e51b81526020600482015260166024820152752737ba103a34329031b7b73a3930b1ba1037bbb732b960511b6044820152606401610313565b6040805160608101825284815260208082018581528284018581526001600160a01b038916600081815293849052858420945160038601559151600485015551600590930192909255915190917fe1dda2a662a12b367401eb9a8eea1a64eaf52a0498289f48cecf72fc56be5cdc91a250505050565b61047c60405180606001604052806000815260200160008152602001600081525090565b506001600160a01b031660009081526020818152604091829020825160608101845281548152600182015492810192909252600201549181019190915290565b6104e060405180606001604052806000815260200160008152602001600081525090565b506001600160a01b031660009081526020818152604091829020825160608101845260038201548152600482015492810192909252600501549181019190915290565b6001546001600160a01b031633146105765760405162461bcd60e51b81526020600482015260166024820152752737ba103a34329031b7b73a3930b1ba1037bbb732b960511b6044820152606401610313565b6040805160608101825284815260208082018581528284018581526001600160a01b038916600081815293849052858420945160068601559151600785015551600890930192909255915190917fe1dda2a662a12b367401eb9a8eea1a64eaf52a0498289f48cecf72fc56be5cdc91a250505050565b6001546001600160a01b0316331461063f5760405162461bcd60e51b81526020600482015260166024820152752737ba103a34329031b7b73a3930b1ba1037bbb732b960511b6044820152606401610313565b60408051808201825283815260208082018481526001600160a01b038716600081815292839052848320935160098501559051600a90930192909255915190917fe1dda2a662a12b367401eb9a8eea1a64eaf52a0498289f48cecf72fc56be5cdc91a2505050565b80356001600160a01b03811681146106be57600080fd5b919050565b6000602082840312156106d557600080fd5b6106de826106a7565b9392505050565b600080600080608085870312156106fb57600080fd5b610704856106a7565b966020860135965060408601359560600135945092505050565b815181526020808301519082015260408083015190820152606081015b92915050565b81518152602080830151908201526040810161073b565b60008060006060848603121561076d57600080fd5b610776846106a7565b9560208501359550604090940135939250505056fea26469706673582212209e81d0139824f95bbe87e79b1d65fbd49cff4c97560855a180fedc90c7dc946264736f6c63430008110033",
      "opcodes": "PUSH1 0x80 PUSH1 0x40 MSTORE CALLVALUE DUP1 ISZERO PUSH2 0x10 JUMPI PUSH1 0x0 DUP1 REVERT JUMPDEST POP PUSH1 0x1 DUP1 SLOAD PUSH1 0x1 PUSH1 0x1 PUSH1 0xA0 SHL SUB NOT AND CALLER OR SWAP1 SSTORE PUSH2 0x7C1 DUP1 PUSH2 0x32 PUSH1 0x0 CODECOPY PUSH1 0x0 RETURN INVALID PUSH1 0x80 PUSH1 0x40 MSTORE CALLVALUE DUP1 ISZERO PUSH2 0x10 JUMPI PUSH1 0x0 DUP1 REVERT JUMPDEST POP PUSH1 0x4 CALLDATASIZE LT PUSH2 0xA3 JUMPI PUSH1 0x0 CALLDATALOAD PUSH1 0xE0 SHR DUP1 PUSH4 0x75F0D4DF GT PUSH2 0x76 JUMPI DUP1 PUSH4 0x8FD850DC GT PUSH2 0x5B JUMPI DUP1 PUSH4 0x8FD850DC EQ PUSH2 0x23B JUMPI DUP1 PUSH4 0xE0C64A8F EQ PUSH2 0x24E JUMPI DUP1 PUSH4 0xF2ABB9DD EQ PUSH2 0x2B1 JUMPI PUSH1 0x0 DUP1 REVERT JUMPDEST DUP1 PUSH4 0x75F0D4DF EQ PUSH2 0x1FD JUMPI DUP1 PUSH4 0x8DA5CB5B EQ PUSH2 0x210 JUMPI PUSH1 0x0 DUP1 REVERT JUMPDEST DUP1 PUSH4 0x1413D4C0 EQ PUSH2 0xA8 JUMPI DUP1 PUSH4 0x17436090 EQ PUSH2 0x1B5 JUMPI DUP1 PUSH4 0x183CFCC8 EQ PUSH2 0x1CA JUMPI DUP1 PUSH4 0x3E41D17D EQ PUSH2 0x1DD JUMPI JUMPDEST PUSH1 0x0 DUP1 REVERT JUMPDEST PUSH2 0x147 PUSH2 0xB6 CALLDATASIZE PUSH1 0x4 PUSH2 0x6C3 JUMP JUMPDEST PUSH1 0x0 PUSH1 0x20 DUP2 DUP2 MSTORE SWAP2 DUP2 MSTORE PUSH1 0x40 SWAP1 DUP2 SWAP1 KECCAK256 DUP2 MLOAD PUSH1 0x60 DUP1 DUP3 ADD DUP5 MSTORE DUP3 SLOAD DUP3 MSTORE PUSH1 0x1 DUP4 ADD SLOAD DUP3 DUP7 ADD MSTORE PUSH1 0x2 DUP4 ADD SLOAD DUP3 DUP6 ADD MSTORE DUP4 MLOAD DUP1 DUP3 ADD DUP6 MSTORE PUSH1 0x3 DUP5 ADD SLOAD DUP2 MSTORE PUSH1 0x4 DUP5 ADD SLOAD DUP2 DUP8 ADD MSTORE PUSH1 0x5 DUP5 ADD SLOAD DUP2 DUP7 ADD MSTORE DUP5 MLOAD SWAP2 DUP3 ADD DUP6 MSTORE PUSH1 0x6 DUP5 ADD SLOAD DUP3 MSTORE PUSH1 0x7 DUP5 ADD SLOAD DUP3 DUP8 ADD MSTORE PUSH1 0x8 DUP5 ADD SLOAD DUP3 DUP7 ADD MSTORE DUP5 MLOAD DUP1 DUP7 ADD SWAP1 SWAP6 MSTORE PUSH1 0x9 DUP5 ADD SLOAD DUP6 MSTORE PUSH1 0xA SWAP1 SWAP4 ADD SLOAD SWAP5 DUP5 ADD SWAP5 SWAP1 SWAP5 MSTORE SWAP3 SWAP1 SWAP2 DUP5 JUMP JUMPDEST PUSH1 0x40 DUP1 MLOAD DUP6 MLOAD DUP2 MSTORE PUSH1 0x20 DUP1 DUP8 ADD MLOAD DUP2 DUP4 ADD MSTORE SWAP6 DUP3 ADD MLOAD DUP2 DUP4 ADD MSTORE DUP5 MLOAD PUSH1 0x60 DUP3 ADD MSTORE DUP5 DUP7 ADD MLOAD PUSH1 0x80 DUP3 ADD MSTORE SWAP4 DUP2 ADD MLOAD PUSH1 0xA0 DUP6 ADD MSTORE DUP3 MLOAD PUSH1 0xC0 DUP6 ADD MSTORE DUP3 DUP6 ADD MLOAD PUSH1 0xE0 DUP6 ADD MSTORE SWAP2 SWAP1 SWAP2 ADD MLOAD PUSH2 0x100 DUP4 ADD MSTORE DUP1 MLOAD PUSH2 0x120 DUP4 ADD MSTORE SWAP1 SWAP2 ADD MLOAD PUSH2 0x140 DUP3 ADD MSTORE PUSH2 0x160 ADD JUMPDEST PUSH1 0x40 MLOAD DUP1 SWAP2 SUB SWAP1 RETURN JUMPDEST PUSH2 0x1C8 PUSH2 0x1C3 CALLDATASIZE PUSH1 0x4 PUSH2 0x6E5 JUMP JUMPDEST PUSH2 0x2C4 JUMP JUMPDEST STOP JUMPDEST PUSH2 0x1C8 PUSH2 0x1D8 CALLDATASIZE PUSH1 0x4 PUSH2 0x6E5 JUMP JUMPDEST PUSH2 0x38F JUMP JUMPDEST PUSH2 0x1F0 PUSH2 0x1EB CALLDATASIZE PUSH1 0x4 PUSH2 0x6C3 JUMP JUMPDEST PUSH2 0x458 JUMP JUMPDEST PUSH1 0x40 MLOAD PUSH2 0x1AC SWAP2 SWAP1 PUSH2 0x71E JUMP JUMPDEST PUSH2 0x1F0 PUSH2 0x20B CALLDATASIZE PUSH1 0x4 PUSH2 0x6C3 JUMP JUMPDEST PUSH2 0x4BC JUMP JUMPDEST PUSH1 0x1 SLOAD PUSH2 0x223 SWAP1 PUSH1 0x1 PUSH1 0x1 PUSH1 0xA0 SHL SUB AND DUP2 JUMP JUMPDEST PUSH1 0x40 MLOAD PUSH1 0x1 PUSH1 0x1 PUSH1 0xA0 SHL SUB SWAP1 SWAP2 AND DUP2 MSTORE PUSH1 0x20 ADD PUSH2 0x1AC JUMP JUMPDEST PUSH2 0x1C8 PUSH2 0x249 CALLDATASIZE PUSH1 0x4 PUSH2 0x6E5 JUMP JUMPDEST PUSH2 0x523 JUMP JUMPDEST PUSH2 0x2A4 PUSH2 0x25C CALLDATASIZE PUSH1 0x4 PUSH2 0x6C3 JUMP JUMPDEST PUSH1 0x40 DUP1 MLOAD DUP1 DUP3 ADD SWAP1 SWAP2 MSTORE PUSH1 0x0 DUP1 DUP3 MSTORE PUSH1 0x20 DUP3 ADD MSTORE POP PUSH1 0x1 PUSH1 0x1 PUSH1 0xA0 SHL SUB AND PUSH1 0x0 SWAP1 DUP2 MSTORE PUSH1 0x20 DUP2 DUP2 MSTORE PUSH1 0x40 SWAP2 DUP3 SWAP1 KECCAK256 DUP3 MLOAD DUP1 DUP5 ADD SWAP1 SWAP4 MSTORE PUSH1 0x9 DUP2 ADD SLOAD DUP4 MSTORE PUSH1 0xA ADD SLOAD SWAP1 DUP3 ADD MSTORE SWAP1 JUMP JUMPDEST PUSH1 0x40 MLOAD PUSH2 0x1AC SWAP2 SWAP1 PUSH2 0x741 JUMP JUMPDEST PUSH2 0x1C8 PUSH2 0x2BF CALLDATASIZE PUSH1 0x4 PUSH2 0x758 JUMP JUMPDEST PUSH2 0x5EC JUMP JUMPDEST PUSH1 0x1 SLOAD PUSH1 0x1 PUSH1 0x1 PUSH1 0xA0 SHL SUB AND CALLER EQ PUSH2 0x31C JUMPI PUSH1 0x40 MLOAD PUSH3 0x461BCD PUSH1 0xE5 SHL DUP2 MSTORE PUSH1 0x20 PUSH1 0x4 DUP3 ADD MSTORE PUSH1 0x16 PUSH1 0x24 DUP3 ADD MSTORE PUSH22 0x2737BA103A34329031B7B73A3930B1BA1037BBB732B9 PUSH1 0x51 SHL PUSH1 0x44 DUP3 ADD MSTORE PUSH1 0x64 ADD JUMPDEST PUSH1 0x40 MLOAD DUP1 SWAP2 SUB SWAP1 REVERT JUMPDEST PUSH1 0x40 DUP1 MLOAD PUSH1 0x60 DUP2 ADD DUP3 MSTORE DUP5 DUP2 MSTORE PUSH1 0x20 DUP1 DUP3 ADD DUP6 DUP2 MSTORE DUP3 DUP5 ADD DUP6 DUP2 MSTORE PUSH1 0x1 PUSH1 0x1 PUSH1 0xA0 SHL SUB DUP10 AND PUSH1 0x0 DUP2 DUP2 MSTORE SWAP4 DUP5 SWAP1 MSTORE DUP6 DUP5 KECCAK256 SWAP5 MLOAD DUP6 SSTORE SWAP2 MLOAD PUSH1 0x1 DUP6 ADD SSTORE MLOAD PUSH1 0x2 SWAP1 SWAP4 ADD SWAP3 SWAP1 SWAP3 SSTORE SWAP2 MLOAD SWAP1 SWAP2 PUSH32 0xE1DDA2A662A12B367401EB9A8EEA1A64EAF52A0498289F48CECF72FC56BE5CDC SWAP2 LOG2 POP POP POP POP JUMP JUMPDEST PUSH1 0x1 SLOAD PUSH1 0x1 PUSH1 0x1 PUSH1 0xA0 SHL SUB AND CALLER EQ PUSH2 0x3E2 JUMPI PUSH1 0x40 MLOAD PUSH3 0x461BCD PUSH1 0xE5 SHL DUP2 MSTORE PUSH1 0x20 PUSH1 0x4 DUP3 ADD MSTORE PUSH1 0x16 PUSH1 0x24 DUP3 ADD MSTORE PUSH22 0x2737BA103A34329031B7B73A3930B1BA1037BBB732B9 PUSH1 0x51 SHL PUSH1 0x44 DUP3 ADD MSTORE PUSH1 0x64 ADD PUSH2 0x313 JUMP JUMPDEST PUSH1 0x40 DUP1 MLOAD PUSH1 0x60 DUP2 ADD DUP3 MSTORE DUP5 DUP2 MSTORE PUSH1 0x20 DUP1 DUP3 ADD DUP6 DUP2 MSTORE DUP3 DUP5 ADD DUP6 DUP2 MSTORE PUSH1 0x1 PUSH1 0x1 PUSH1 0xA0 SHL SUB DUP10 AND PUSH1 0x0 DUP2 DUP2 MSTORE SWAP4 DUP5 SWAP1 MSTORE DUP6 DUP5 KECCAK256 SWAP5 MLOAD PUSH1 0x3 DUP7 ADD SSTORE SWAP2 MLOAD PUSH1 0x4 DUP6 ADD SSTORE MLOAD PUSH1 0x5 SWAP1 SWAP4 ADD SWAP3 SWAP1 SWAP3 SSTORE SWAP2 MLOAD SWAP1 SWAP2 PUSH32 0xE1DDA2A662A12B367401EB9A8EEA1A64EAF52A0498289F48CECF72FC56BE5CDC SWAP2 LOG2 POP POP POP POP JUMP JUMPDEST PUSH2 0x47C PUSH1 0x40 MLOAD DUP1 PUSH1 0x60 ADD PUSH1 0x40 MSTORE DUP1 PUSH1 0x0 DUP2 MSTORE PUSH1 0x20 ADD PUSH1 0x0 DUP2 MSTORE PUSH1 0x20 ADD PUSH1 0x0 DUP2 MSTORE POP SWAP1 JUMP JUMPDEST POP PUSH1 0x1 PUSH1 0x1 PUSH1 0xA0 SHL SUB AND PUSH1 0x0 SWAP1 DUP2 MSTORE PUSH1 0x20 DUP2 DUP2 MSTORE PUSH1 0x40 SWAP2 DUP3 SWAP1 KECCAK256 DUP3 MLOAD PUSH1 0x60 DUP2 ADD DUP5 MSTORE DUP2 SLOAD DUP2 MSTORE PUSH1 0x1 DUP3 ADD SLOAD SWAP3 DUP2 ADD SWAP3 SWAP1 SWAP3 MSTORE PUSH1 0x2 ADD SLOAD SWAP2 DUP2 ADD SWAP2 SWAP1 SWAP2 MSTORE SWAP1 JUMP JUMPDEST PUSH2 0x4E0 PUSH1 0x40 MLOAD DUP1 PUSH1 0x60 ADD PUSH1 0x40 MSTORE DUP1 PUSH1 0x0 DUP2 MSTORE PUSH1 0x20 ADD PUSH1 0x0 DUP2 MSTORE PUSH1 0x20 ADD PUSH1 0x0 DUP2 MSTORE POP SWAP1 JUMP JUMPDEST POP PUSH1 0x1 PUSH1 0x1 PUSH1 0xA0 SHL SUB AND PUSH1 0x0 SWAP1 DUP2 MSTORE PUSH1 0x20 DUP2 DUP2 MSTORE PUSH1 0x40 SWAP2 DUP3 SWAP1 KECCAK256 DUP3 MLOAD PUSH1 0x60 DUP2 ADD DUP5 MSTORE PUSH1 0x3 DUP3 ADD SLOAD DUP2 MSTORE PUSH1 0x4 DUP3 ADD SLOAD SWAP3 DUP2 ADD SWAP3 SWAP1 SWAP3 MSTORE PUSH1 0x5 ADD SLOAD SWAP2 DUP2 ADD SWAP2 SWAP1 SWAP2 MSTORE SWAP1 JUMP JUMPDEST PUSH1 0x1 SLOAD PUSH1 0x1 PUSH1 0x1 PUSH1 0xA0 SHL SUB AND CALLER EQ PUSH2 0x576 JUMPI PUSH1 0x40 MLOAD PUSH3 0x461BCD PUSH1 0xE5 SHL DUP2 MSTORE PUSH1 0x20 PUSH1 0x4 DUP3 ADD MSTORE PUSH1 0x16 PUSH1 0x24 DUP3 ADD MSTORE PUSH22 0x2737BA103A34329031B7B73A3930B1BA1037BBB732B9 PUSH1 0x51 SHL PUSH1 0x44 DUP3 ADD MSTORE PUSH1 0x64 ADD PUSH2 0x313 JUMP JUMPDEST PUSH1 0x40 DUP1 MLOAD PUSH1 0x60 DUP2 ADD DUP3 MSTORE DUP5 DUP2 MSTORE PUSH1 0x20 DUP1 DUP3 ADD DUP6 DUP2 MSTORE DUP3 DUP5 ADD DUP6 DUP2 MSTORE PUSH1 0x1 PUSH1 0x1 PUSH1 0xA0 SHL SUB DUP10 AND PUSH1 0x0 DUP2 DUP2 MSTORE SWAP4 DUP5 SWAP1 MSTORE DUP6 DUP5 KECCAK256 SWAP5 MLOAD PUSH1 0x6 DUP7 ADD SSTORE SWAP2 MLOAD PUSH1 0x7 DUP6 ADD SSTORE MLOAD PUSH1 0x8 SWAP1 SWAP4 ADD SWAP3 SWAP1 SWAP3 SSTORE SWAP2 MLOAD SWAP1 SWAP2 PUSH32 0xE1DDA2A662A12B367401EB9A8EEA1A64EAF52A0498289F48CECF72FC56BE5CDC SWAP2 LOG2 POP POP POP POP JUMP JUMPDEST PUSH1 0x1 SLOAD PUSH1 0x1 PUSH1 0x1 PUSH1 0xA0 SHL SUB AND CALLER EQ PUSH2 0x63F JUMPI PUSH1 0x40 MLOAD PUSH3 0x461BCD PUSH1 0xE5 SHL DUP2 MSTORE PUSH1 0x20 PUSH1 0x4 DUP3 ADD MSTORE PUSH1 0x16 PUSH1 0x24 DUP3 ADD MSTORE PUSH22 0x2737BA103A34329031B7B73A3930B1BA1037BBB732B9 PUSH1 0x51 SHL PUSH1 0x44 DUP3 ADD MSTORE PUSH1 0x64 ADD PUSH2 0x313 JUMP JUMPDEST PUSH1 0x40 DUP1 MLOAD DUP1 DUP3 ADD DUP3 MSTORE DUP4 DUP2 MSTORE PUSH1 0x20 DUP1 DUP3 ADD DUP5 DUP2 MSTORE PUSH1 0x1 PUSH1 0x1 PUSH1 0xA0 SHL SUB DUP8 AND PUSH1 0x0 DUP2 DUP2 MSTORE SWAP3 DUP4 SWAP1 MSTORE DUP5 DUP4 KECCAK256 SWAP4 MLOAD PUSH1 0x9 DUP6 ADD SSTORE SWAP1 MLOAD PUSH1 0xA SWAP1 SWAP4 ADD SWAP3 SWAP1 SWAP3 SSTORE SWAP2 MLOAD SWAP1 SWAP2 PUSH32 0xE1DDA2A662A12B367401EB9A8EEA1A64EAF52A0498289F48CECF72FC56BE5CDC SWAP2 LOG2 POP POP POP JUMP JUMPDEST DUP1 CALLDATALOAD PUSH1 0x1 PUSH1 0x1 PUSH1 0xA0 SHL SUB DUP2 AND DUP2 EQ PUSH2 0x6BE JUMPI PUSH1 0x0 DUP1 REVERT JUMPDEST SWAP2 SWAP1 POP JUMP JUMPDEST PUSH1 0x0 PUSH1 0x20 DUP3 DUP5 SUB SLT ISZERO PUSH2 0x6D5 JUMPI PUSH1 0x0 DUP1 REVERT JUMPDEST PUSH2 0x6DE DUP3 PUSH2 0x6A7 JUMP JUMPDEST SWAP4 SWAP3 POP POP POP JUMP JUMPDEST PUSH1 0x0 DUP1 PUSH1 0x0 DUP1 PUSH1 0x80 DUP6 DUP8 SUB SLT ISZERO PUSH2 0x6FB JUMPI PUSH1 0x0 DUP1 REVERT JUMPDEST PUSH2 0x704 DUP6 PUSH2 0x6A7 JUMP JUMPDEST SWAP7 PUSH1 0x20 DUP7 ADD CALLDATALOAD SWAP7 POP PUSH1 0x40 DUP7 ADD CALLDATALOAD SWAP6 PUSH1 0x60 ADD CALLDATALOAD SWAP5 POP SWAP3 POP POP POP JUMP JUMPDEST DUP2 MLOAD DUP2 MSTORE PUSH1 0x20 DUP1 DUP4 ADD MLOAD SWAP1 DUP3 ADD MSTORE PUSH1 0x40 DUP1 DUP4 ADD MLOAD SWAP1 DUP3 ADD MSTORE PUSH1 0x60 DUP2 ADD JUMPDEST SWAP3 SWAP2 POP POP JUMP JUMPDEST DUP2 MLOAD DUP2 MSTORE PUSH1 0x20 DUP1 DUP4 ADD MLOAD SWAP1 DUP3 ADD MSTORE PUSH1 0x40 DUP2 ADD PUSH2 0x73B JUMP JUMPDEST PUSH1 0x0 DUP1 PUSH1 0x0 PUSH1 0x60 DUP5 DUP7 SUB SLT ISZERO PUSH2 0x76D JUMPI PUSH1 0x0 DUP1 REVERT JUMPDEST PUSH2 0x776 DUP5 PUSH2 0x6A7 JUMP JUMPDEST SWAP6 PUSH1 0x20 DUP6 ADD CALLDATALOAD SWAP6 POP PUSH1 0x40 SWAP1 SWAP5 ADD CALLDATALOAD SWAP4 SWAP3 POP POP POP JUMP INVALID LOG2 PUSH5 0x6970667358 0x22 SLT KECCAK256 SWAP15 DUP2 0xD0 SGT SWAP9 0x24 0xF9 JUMPDEST 0xBE DUP8 0xE7 SWAP12 SAR PUSH6 0xFBD49CFF4C97 JUMP ADDMOD SSTORE LOG1 DUP1 INVALID 0xDC SWAP1 0xC7 0xDC SWAP5 PUSH3 0x64736F PUSH13 0x63430008110033000000000000 "
    },
    "gasEstimates": {
      "creation": {
        "codeDepositCost": "397000",
        "executionCost": "24671",
        "totalCost": "421671"
      },
      "external": {
        "getDaoActions(address)": "7069",
        "getDefiActions(address)": "7107",
        "getGeneralActions(address)": "4888",
        "owner()": "2382",
        "updateDaoActions(address,uint256,uint256,uint256)": "70224",
        "updateDefiActions(address,uint256,uint256,uint256)": "70196",
        "updateGeneralActions(address,uint256,uint256)": "48096",
        "updateTokenActions(address,uint256,uint256,uint256)": "70201",
        "userScores(address)": "24128"
      }
    },
    "methodIdentifiers": {
      "getDaoActions(address)": "75f0d4df",
      "getDefiActions(address)": "3e41d17d",
      "getGeneralActions(address)": "e0c64a8f",
      "owner()": "8da5cb5b",
      "updateDaoActions(address,uint256,uint256,uint256)": "183cfcc8",
      "updateDefiActions(address,uint256,uint256,uint256)": "17436090",
      "updateGeneralActions(address,uint256,uint256)": "f2abb9dd",
      "updateTokenActions(address,uint256,uint256,uint256)": "8fd850dc",
      "userScores(address)": "1413d4c0"
    }
  },
  "storageLayout": {
    "storage": [
      {
        "astId": 45,
        "contract": "SocialScore.sol:SocialScore",
        "label": "userScores",
        "offset": 0,
        "slot": "0",
        "type": "t_mapping(t_address,t_struct(UserScore)40_storage)"
      },
      {
        "astId": 51,
        "contract": "SocialScore.sol:SocialScore",
        "label": "owner",
        "offset": 0,
        "slot": "1",
        "type": "t_address"
      }
    ],
    "types": {
      "t_address": {
        "encoding": "inplace",
        "label": "address",
        "numberOfBytes": "20"
      },
      "t_mapping(t_address,t_struct(UserScore)40_storage)": {
        "encoding": "mapping",
        "key": "t_address",
        "label": "mapping(address => struct SocialScore.UserScore)",
        "numberOfBytes": "32",
        "value": "t_struct(UserScore)40_storage"
      },
      "t_struct(DaoActions)15_storage": {
        "encoding": "inplace",
        "label": "struct SocialScore.DaoActions",
        "members": [
          {
            "astId": 10,
            "contract": "SocialScore.sol:SocialScore",
            "label": "approvals",
            "offset": 0,
            "slot": "0",
            "type": "t_uint256"
          },
          {
            "astId": 12,
            "contract": "SocialScore.sol:SocialScore",
            "label": "proposals_submitted",
            "offset": 0,
            "slot": "1",
            "type": "t_uint256"
          },
          {
            "astId": 14,
            "contract": "SocialScore.sol:SocialScore",
            "label": "votes",
            "offset": 0,
            "slot": "2",
            "type": "t_uint256"
          }
        ],
        "numberOfBytes": "96"
      },
      "t_struct(DefiActions)8_storage": {
        "encoding": "inplace",
        "label": "struct SocialScore.DefiActions",
        "members": [
          {
            "astId": 3,
            "contract": "SocialScore.sol:SocialScore",
            "label": "loans",
            "offset": 0,
            "slot": "0",
            "type": "t_uint256"
          },
          {
            "astId": 5,
            "contract": "SocialScore.sol:SocialScore",
            "label": "swaps",
            "offset": 0,
            "slot": "1",
            "type": "t_uint256"
          },
          {
            "astId": 7,
            "contract": "SocialScore.sol:SocialScore",
            "label": "repayments",
            "offset": 0,
            "slot": "2",
            "type": "t_uint256"
          }
        ],
        "numberOfBytes": "96"
      },
      "t_struct(GeneralActions)27_storage": {
        "encoding": "inplace",
        "label": "struct SocialScore.GeneralActions",
        "members": [
          {
            "astId": 24,
            "contract": "SocialScore.sol:SocialScore",
            "label": "transactions",
            "offset": 0,
            "slot": "0",
            "type": "t_uint256"
          },
          {
            "astId": 26,
            "contract": "SocialScore.sol:SocialScore",
            "label": "unique_addresses_interacted",
            "offset": 0,
            "slot": "1",
            "type": "t_uint256"
          }
        ],
        "numberOfBytes": "64"
      },
      "t_struct(TokenActions)22_storage": {
        "encoding": "inplace",
        "label": "struct SocialScore.TokenActions",
        "members": [
          {
            "astId": 17,
            "contract": "SocialScore.sol:SocialScore",
            "label": "token_transfers",
            "offset": 0,
            "slot": "0",
            "type": "t_uint256"
          },
          {
            "astId": 19,
            "contract": "SocialScore.sol:SocialScore",
            "label": "purchased",
            "offset": 0,
            "slot": "1",
            "type": "t_uint256"
          },
          {
            "astId": 21,
            "contract": "SocialScore.sol:SocialScore",
            "label": "held",
            "offset": 0,
            "slot": "2",
            "type": "t_uint256"
          }
        ],
        "numberOfBytes": "96"
      },
      "t_struct(UserScore)40_storage": {
        "encoding": "inplace",
        "label": "struct SocialScore.UserScore",
        "members": [
          {
            "astId": 30,
            "contract": "SocialScore.sol:SocialScore",
            "label": "defi_actions",
            "offset": 0,
            "slot": "0",
            "type": "t_struct(DefiActions)8_storage"
          },
          {
            "astId": 33,
            "contract": "SocialScore.sol:SocialScore",
            "label": "dao_actions",
            "offset": 0,
            "slot": "3",
            "type": "t_struct(DaoActions)15_storage"
          },
          {
            "astId": 36,
            "contract": "SocialScore.sol:SocialScore",
            "label": "token_actions",
            "offset": 0,
            "slot": "6",
            "type": "t_struct(TokenActions)22_storage"
          },
          {
            "astId": 39,
            "contract": "SocialScore.sol:SocialScore",
            "label": "general_actions",
            "offset": 0,
            "slot": "9",
            "type": "t_struct(GeneralActions)27_storage"
          }
        ],
        "numberOfBytes": "352"
      },
      "t_uint256": {
        "encoding": "inplace",
        "label": "uint256",
        "numberOfBytes": "32"
      }
    }
  },
  "userdoc": {
    "kind": "user",
    "methods": {},
    "version": 1
  }
}