{
  "abi": [
    {
      "inputs": [],
      "stateMutability": "nonpayable",
      "type": "constructor"
    },
    {
      "anonymous": false,
      "inputs": [
        {
          "indexed": true,
          "internalType": "address",
          "name": "user",
          "type": "address"
        }
      ],
      "name": "ScoreUpdated",
      "type": "event"
    },
    {
      "inputs": [
        {
          "internalType": "address",
          "name": "_user",
          "type": "address"
        }
      ],
      "name": "getDaoActions",
      "outputs": [
        {
          "components": [
            {
              "internalType": "uint256",
              "name": "approvals",
              "type": "uint256"
            },
            {
              "internalType": "uint256",
              "name": "proposals_submitted",
              "type": "uint256"
            },
            {
              "internalType": "uint256",
              "name": "votes",
              "type": "uint256"
            }
          ],
          "internalType": "struct SocialScore.DaoActions",
          "name": "",
          "type": "tuple"
        }
      ],
      "stateMutability": "view",
      "type": "function"
    },
    {
      "inputs": [
        {
          "internalType": "address",
          "name": "_user",
          "type": "address"
        }
      ],
      "name": "getDefiActions",
      "outputs": [
        {
          "components": [
            {
              "internalType": "uint256",
              "name": "loans",
              "type": "uint256"
            },
            {
              "internalType": "uint256",
              "name": "total_volume",
              "type": "uint256"
            },
            {
              "internalType": "uint256",
              "name": "swaps",
              "type": "uint256"
            },
            {
              "internalType": "uint256",
              "name": "repayments",
              "type": "uint256"
            }
          ],
          "internalType": "struct SocialScore.DefiActions",
          "name": "",
          "type": "tuple"
        }
      ],
      "stateMutability": "view",
      "type": "function"
    },
    {
      "inputs": [
        {
          "internalType": "address",
          "name": "_user",
          "type": "address"
        }
      ],
      "name": "getGeneralActions",
      "outputs": [
        {
          "components": [
            {
              "internalType": "uint256",
              "name": "transactions",
              "type": "uint256"
            },
            {
              "internalType": "uint256",
              "name": "unique_addresses_interacted",
              "type": "uint256"
            }
          ],
          "internalType": "struct SocialScore.GeneralActions",
          "name": "",
          "type": "tuple"
        }
      ],
      "stateMutability": "view",
      "type": "function"
    },
    {
      "inputs": [
        {
          "internalType": "address",
          "name": "_user",
          "type": "address"
        }
      ],
      "name": "getNftActions",
      "outputs": [
        {
          "components": [
            {
              "internalType": "uint256",
              "name": "minted",
              "type": "uint256"
            },
            {
              "internalType": "uint256",
              "name": "purchased",
              "type": "uint256"
            },
            {
              "internalType": "uint256",
              "name": "sold",
              "type": "uint256"
            },
            {
              "internalType": "uint256",
              "name": "held",
              "type": "uint256"
            }
          ],
          "internalType": "struct SocialScore.NftActions",
          "name": "",
          "type": "tuple"
        }
      ],
      "stateMutability": "view",
      "type": "function"
    },
    {
      "inputs": [],
      "name": "owner",
      "outputs": [
        {
          "internalType": "address",
          "name": "",
          "type": "address"
        }
      ],
      "stateMutability": "view",
      "type": "function"
    },
    {
      "inputs": [
        {
          "internalType": "address",
          "name": "_user",
          "type": "address"
        },
        {
          "internalType": "uint256",
          "name": "_approvals",
          "type": "uint256"
        },
        {
          "internalType": "uint256",
          "name": "_proposals_submitted",
          "type": "uint256"
        },
        {
          "internalType": "uint256",
          "name": "_votes",
          "type": "uint256"
        }
      ],
      "name": "updateDaoActions",
      "outputs": [],
      "stateMutability": "nonpayable",
      "type": "function"
    },
    {
      "inputs": [
        {
          "internalType": "address",
          "name": "_user",
          "type": "address"
        },
        {
          "internalType": "uint256",
          "name": "_loans",
          "type": "uint256"
        },
        {
          "internalType": "uint256",
          "name": "_total_volume",
          "type": "uint256"
        },
        {
          "internalType": "uint256",
          "name": "_swaps",
          "type": "uint256"
        },
        {
          "internalType": "uint256",
          "name": "_repayments",
          "type": "uint256"
        }
      ],
      "name": "updateDefiActions",
      "outputs": [],
      "stateMutability": "nonpayable",
      "type": "function"
    },
    {
      "inputs": [
        {
          "internalType": "address",
          "name": "_user",
          "type": "address"
        },
        {
          "internalType": "uint256",
          "name": "_transactions",
          "type": "uint256"
        },
        {
          "internalType": "uint256",
          "name": "_unique_addresses_interacted",
          "type": "uint256"
        }
      ],
      "name": "updateGeneralActions",
      "outputs": [],
      "stateMutability": "nonpayable",
      "type": "function"
    },
    {
      "inputs": [
        {
          "internalType": "address",
          "name": "_user",
          "type": "address"
        },
        {
          "internalType": "uint256",
          "name": "_minted",
          "type": "uint256"
        },
        {
          "internalType": "uint256",
          "name": "_purchased",
          "type": "uint256"
        },
        {
          "internalType": "uint256",
          "name": "_sold",
          "type": "uint256"
        },
        {
          "internalType": "uint256",
          "name": "_held",
          "type": "uint256"
        }
      ],
      "name": "updateNftActions",
      "outputs": [],
      "stateMutability": "nonpayable",
      "type": "function"
    },
    {
      "inputs": [
        {
          "internalType": "address",
          "name": "_user",
          "type": "address"
        },
        {
          "internalType": "uint256",
          "name": "_total_volume",
          "type": "uint256"
        },
        {
          "internalType": "uint256",
          "name": "_purchased",
          "type": "uint256"
        },
        {
          "internalType": "uint256",
          "name": "_sold",
          "type": "uint256"
        },
        {
          "internalType": "uint256",
          "name": "_held",
          "type": "uint256"
        }
      ],
      "name": "updateTokenActions",
      "outputs": [],
      "stateMutability": "nonpayable",
      "type": "function"
    },
    {
      "inputs": [
        {
          "internalType": "address",
          "name": "",
          "type": "address"
        }
      ],
      "name": "userScores",
      "outputs": [
        {
          "components": [
            {
              "internalType": "uint256",
              "name": "loans",
              "type": "uint256"
            },
            {
              "internalType": "uint256",
              "name": "total_volume",
              "type": "uint256"
            },
            {
              "internalType": "uint256",
              "name": "swaps",
              "type": "uint256"
            },
            {
              "internalType": "uint256",
              "name": "repayments",
              "type": "uint256"
            }
          ],
          "internalType": "struct SocialScore.DefiActions",
          "name": "defi_actions",
          "type": "tuple"
        },
        {
          "components": [
            {
              "internalType": "uint256",
              "name": "approvals",
              "type": "uint256"
            },
            {
              "internalType": "uint256",
              "name": "proposals_submitted",
              "type": "uint256"
            },
            {
              "internalType": "uint256",
              "name": "votes",
              "type": "uint256"
            }
          ],
          "internalType": "struct SocialScore.DaoActions",
          "name": "dao_actions",
          "type": "tuple"
        },
        {
          "components": [
            {
              "internalType": "uint256",
              "name": "total_volume",
              "type": "uint256"
            },
            {
              "internalType": "uint256",
              "name": "purchased",
              "type": "uint256"
            },
            {
              "internalType": "uint256",
              "name": "sold",
              "type": "uint256"
            },
            {
              "internalType": "uint256",
              "name": "held",
              "type": "uint256"
            }
          ],
          "internalType": "struct SocialScore.TokenActions",
          "name": "token_actions",
          "type": "tuple"
        },
        {
          "components": [
            {
              "internalType": "uint256",
              "name": "minted",
              "type": "uint256"
            },
            {
              "internalType": "uint256",
              "name": "purchased",
              "type": "uint256"
            },
            {
              "internalType": "uint256",
              "name": "sold",
              "type": "uint256"
            },
            {
              "internalType": "uint256",
              "name": "held",
              "type": "uint256"
            }
          ],
          "internalType": "struct SocialScore.NftActions",
          "name": "nft_actions",
          "type": "tuple"
        },
        {
          "components": [
            {
              "internalType": "uint256",
              "name": "transactions",
              "type": "uint256"
            },
            {
              "internalType": "uint256",
              "name": "unique_addresses_interacted",
              "type": "uint256"
            }
          ],
          "internalType": "struct SocialScore.GeneralActions",
          "name": "general_actions",
          "type": "tuple"
        }
      ],
      "stateMutability": "view",
      "type": "function"
    }
  ],
  "devdoc": {
    "kind": "dev",
    "methods": {},
    "version": 1
  },
  "evm": {
    "assembly": "    /* \"SocialScore.sol\":57:3648  contract SocialScore {... */\n  mstore(0x40, 0x80)\n    /* \"SocialScore.sol\":1148:1197  constructor() {... */\n  callvalue\n  dup1\n  iszero\n  tag_1\n  jumpi\n  0x00\n  dup1\n  revert\ntag_1:\n  pop\n    /* \"SocialScore.sol\":1172:1177  owner */\n  0x01\n    /* \"SocialScore.sol\":1172:1190  owner = msg.sender */\n  dup1\n  sload\n  not(sub(shl(0xa0, 0x01), 0x01))\n  and\n    /* \"SocialScore.sol\":1180:1190  msg.sender */\n  caller\n    /* \"SocialScore.sol\":1172:1190  owner = msg.sender */\n  or\n  swap1\n  sstore\n    /* \"SocialScore.sol\":57:3648  contract SocialScore {... */\n  dataSize(sub_0)\n  dup1\n  dataOffset(sub_0)\n  0x00\n  codecopy\n  0x00\n  return\nstop\n\nsub_0: assembly {\n        /* \"SocialScore.sol\":57:3648  contract SocialScore {... */\n      mstore(0x40, 0x80)\n      callvalue\n      dup1\n      iszero\n      tag_1\n      jumpi\n      0x00\n      dup1\n      revert\n    tag_1:\n      pop\n      jumpi(tag_2, lt(calldatasize, 0x04))\n      shr(0xe0, calldataload(0x00))\n      dup1\n      0x8da5cb5b\n      gt\n      tag_14\n      jumpi\n      dup1\n      0xc306d1e8\n      gt\n      tag_15\n      jumpi\n      dup1\n      0xc306d1e8\n      eq\n      tag_10\n      jumpi\n      dup1\n      0xe0c64a8f\n      eq\n      tag_12\n      jumpi\n      dup1\n      0xf2abb9dd\n      eq\n      tag_13\n      jumpi\n      0x00\n      dup1\n      revert\n    tag_15:\n      dup1\n      0x8da5cb5b\n      eq\n      tag_8\n      jumpi\n      dup1\n      0xaa56a179\n      eq\n      tag_9\n      jumpi\n      dup1\n      0xb86c4728\n      eq\n      tag_10\n      jumpi\n      0x00\n      dup1\n      revert\n    tag_14:\n      dup1\n      0x3e41d17d\n      gt\n      tag_16\n      jumpi\n      dup1\n      0x3e41d17d\n      eq\n      tag_5\n      jumpi\n      dup1\n      0x55db6f4b\n      eq\n      tag_6\n      jumpi\n      dup1\n      0x75f0d4df\n      eq\n      tag_7\n      jumpi\n      0x00\n      dup1\n      revert\n    tag_16:\n      dup1\n      0x1413d4c0\n      eq\n      tag_3\n      jumpi\n      dup1\n      0x183cfcc8\n      eq\n      tag_4\n      jumpi\n    tag_2:\n      0x00\n      dup1\n      revert\n        /* \"SocialScore.sol\":912:959  mapping(address => UserScore) public userScores */\n    tag_3:\n      tag_17\n      tag_18\n      calldatasize\n      0x04\n      tag_19\n      jump\t// in\n    tag_18:\n      0x00\n      0x20\n      dup2\n      dup2\n      mstore\n      swap2\n      dup2\n      mstore\n      0x40\n      swap1\n      dup2\n      swap1\n      keccak256\n      dup2\n      mload\n      0x80\n      dup1\n      dup3\n      add\n      dup5\n      mstore\n      dup3\n      sload\n      dup3\n      mstore\n      0x01\n      dup4\n      add\n      sload\n      dup3\n      dup7\n      add\n      mstore\n      0x02\n      dup4\n      add\n      sload\n      dup3\n      dup6\n      add\n      mstore\n      0x03\n      dup4\n      add\n      sload\n      0x60\n      dup1\n      dup5\n      add\n      swap2\n      swap1\n      swap2\n      mstore\n      dup5\n      mload\n      dup1\n      dup3\n      add\n      dup7\n      mstore\n      0x04\n      dup6\n      add\n      sload\n      dup2\n      mstore\n      0x05\n      dup6\n      add\n      sload\n      dup2\n      dup9\n      add\n      mstore\n      0x06\n      dup6\n      add\n      sload\n      dup2\n      dup8\n      add\n      mstore\n      dup6\n      mload\n      dup1\n      dup5\n      add\n      dup8\n      mstore\n      0x07\n      dup7\n      add\n      sload\n      dup2\n      mstore\n      0x08\n      dup7\n      add\n      sload\n      dup2\n      dup10\n      add\n      mstore\n      0x09\n      dup7\n      add\n      sload\n      dup2\n      dup9\n      add\n      mstore\n      0x0a\n      dup7\n      add\n      sload\n      dup2\n      dup5\n      add\n      mstore\n      dup7\n      mload\n      swap4\n      dup5\n      add\n      dup8\n      mstore\n      0x0b\n      dup7\n      add\n      sload\n      dup5\n      mstore\n      0x0c\n      dup7\n      add\n      sload\n      dup5\n      dup10\n      add\n      mstore\n      0x0d\n      dup7\n      add\n      sload\n      dup5\n      dup9\n      add\n      mstore\n      0x0e\n      dup7\n      add\n      sload\n      swap3\n      dup5\n      add\n      swap3\n      swap1\n      swap3\n      mstore\n      dup6\n      mload\n      dup1\n      dup8\n      add\n      swap1\n      swap7\n      mstore\n      0x0f\n      dup6\n      add\n      sload\n      dup7\n      mstore\n      0x10\n      swap1\n      swap5\n      add\n      sload\n      swap6\n      dup6\n      add\n      swap6\n      swap1\n      swap6\n      mstore\n      swap1\n      swap4\n      swap2\n      swap3\n      dup6\n      jump\n    tag_17:\n      0x40\n      dup1\n      mload\n        /* \"#utility.yul\":483:495   */\n      dup7\n      mload\n        /* \"#utility.yul\":471:496   */\n      dup2\n      mstore\n        /* \"#utility.yul\":545:549   */\n      0x20\n        /* \"#utility.yul\":534:550   */\n      dup1\n      dup9\n      add\n        /* \"#utility.yul\":528:551   */\n      mload\n        /* \"#utility.yul\":512:526   */\n      dup2\n      dup4\n      add\n        /* \"#utility.yul\":505:552   */\n      mstore\n        /* \"#utility.yul\":590:606   */\n      dup8\n      dup4\n      add\n        /* \"#utility.yul\":584:607   */\n      mload\n        /* \"#utility.yul\":568:582   */\n      dup3\n      dup5\n      add\n        /* \"#utility.yul\":561:608   */\n      mstore\n        /* \"#utility.yul\":657:661   */\n      0x60\n        /* \"#utility.yul\":646:662   */\n      swap8\n      dup9\n      add\n        /* \"#utility.yul\":640:663   */\n      mload\n        /* \"#utility.yul\":624:638   */\n      dup9\n      dup4\n      add\n        /* \"#utility.yul\":617:664   */\n      mstore\n        /* \"#utility.yul\":751:763   */\n      dup7\n      mload\n        /* \"#utility.yul\":1689:1692   */\n      0x80\n        /* \"#utility.yul\":1674:1693   */\n      dup4\n      add\n        /* \"#utility.yul\":739:764   */\n      mstore\n        /* \"#utility.yul\":802:818   */\n      dup1\n      dup8\n      add\n        /* \"#utility.yul\":796:819   */\n      mload\n        /* \"#utility.yul\":780:794   */\n      0xa0\n      dup4\n      add\n        /* \"#utility.yul\":773:820   */\n      mstore\n        /* \"#utility.yul\":858:874   */\n      swap6\n      dup3\n      add\n        /* \"#utility.yul\":852:875   */\n      mload\n        /* \"#utility.yul\":836:850   */\n      0xc0\n      dup3\n      add\n        /* \"#utility.yul\":829:876   */\n      mstore\n        /* \"#utility.yul\":483:495   */\n      dup5\n      mload\n        /* \"#utility.yul\":1756:1759   */\n      0xe0\n        /* \"#utility.yul\":1741:1760   */\n      dup3\n      add\n        /* \"#utility.yul\":471:496   */\n      mstore\n        /* \"#utility.yul\":534:550   */\n      dup6\n      dup6\n      add\n        /* \"#utility.yul\":528:551   */\n      mload\n        /* \"#utility.yul\":512:526   */\n      0x0100\n      dup3\n      add\n        /* \"#utility.yul\":505:552   */\n      mstore\n        /* \"#utility.yul\":590:606   */\n      dup5\n      dup3\n      add\n        /* \"#utility.yul\":584:607   */\n      mload\n        /* \"#utility.yul\":568:582   */\n      0x0120\n      dup3\n      add\n        /* \"#utility.yul\":561:608   */\n      mstore\n        /* \"#utility.yul\":646:662   */\n      swap4\n      dup7\n      add\n        /* \"#utility.yul\":640:663   */\n      mload\n        /* \"#utility.yul\":624:638   */\n      0x0140\n      dup6\n      add\n        /* \"#utility.yul\":617:664   */\n      mstore\n        /* \"#utility.yul\":483:495   */\n      dup3\n      mload\n        /* \"#utility.yul\":1823:1826   */\n      0x0160\n        /* \"#utility.yul\":1808:1827   */\n      dup6\n      add\n        /* \"#utility.yul\":471:496   */\n      mstore\n        /* \"#utility.yul\":534:550   */\n      dup5\n      dup4\n      add\n        /* \"#utility.yul\":528:551   */\n      mload\n        /* \"#utility.yul\":512:526   */\n      0x0180\n      dup6\n      add\n        /* \"#utility.yul\":505:552   */\n      mstore\n        /* \"#utility.yul\":590:606   */\n      dup3\n      add\n        /* \"#utility.yul\":584:607   */\n      mload\n        /* \"#utility.yul\":568:582   */\n      0x01a0\n      dup5\n      add\n        /* \"#utility.yul\":561:608   */\n      mstore\n        /* \"#utility.yul\":646:662   */\n      swap4\n      add\n        /* \"#utility.yul\":640:663   */\n      mload\n        /* \"#utility.yul\":624:638   */\n      0x01c0\n      dup3\n      add\n        /* \"#utility.yul\":617:664   */\n      mstore\n        /* \"#utility.yul\":967:979   */\n      dup3\n      mload\n        /* \"#utility.yul\":1893:1896   */\n      0x01e0\n        /* \"#utility.yul\":1878:1897   */\n      dup3\n      add\n        /* \"#utility.yul\":955:980   */\n      mstore\n        /* \"#utility.yul\":1018:1034   */\n      swap2\n      add\n        /* \"#utility.yul\":1012:1035   */\n      mload\n        /* \"#utility.yul\":996:1010   */\n      0x0200\n      dup3\n      add\n        /* \"#utility.yul\":989:1036   */\n      mstore\n        /* \"#utility.yul\":1567:1570   */\n      0x0220\n        /* \"#utility.yul\":1552:1571   */\n      add\n        /* \"SocialScore.sol\":912:959  mapping(address => UserScore) public userScores */\n    tag_21:\n      mload(0x40)\n      dup1\n      swap2\n      sub\n      swap1\n      return\n        /* \"SocialScore.sol\":1589:1934  function updateDaoActions(... */\n    tag_4:\n      tag_23\n      tag_24\n      calldatasize\n      0x04\n      tag_25\n      jump\t// in\n    tag_24:\n      tag_26\n      jump\t// in\n    tag_23:\n      stop\n        /* \"SocialScore.sol\":3025:3175  function getDefiActions(... */\n    tag_5:\n      tag_27\n      tag_28\n      calldatasize\n      0x04\n      tag_19\n      jump\t// in\n    tag_28:\n      tag_29\n      jump\t// in\n    tag_27:\n      mload(0x40)\n      tag_21\n      swap2\n      swap1\n      tag_31\n      jump\t// in\n        /* \"SocialScore.sol\":3334:3481  function getNftActions(... */\n    tag_6:\n      tag_27\n      tag_33\n      calldatasize\n      0x04\n      tag_19\n      jump\t// in\n    tag_33:\n      tag_34\n      jump\t// in\n        /* \"SocialScore.sol\":3181:3328  function getDaoActions(... */\n    tag_7:\n      tag_37\n      tag_38\n      calldatasize\n      0x04\n      tag_19\n      jump\t// in\n    tag_38:\n      tag_39\n      jump\t// in\n    tag_37:\n      mload(0x40)\n      tag_21\n      swap2\n      swap1\n      tag_41\n      jump\t// in\n        /* \"SocialScore.sol\":1012:1032  address public owner */\n    tag_8:\n      sload(0x01)\n      tag_42\n      swap1\n      sub(shl(0xa0, 0x01), 0x01)\n      and\n      dup2\n      jump\n    tag_42:\n      mload(0x40)\n      sub(shl(0xa0, 0x01), 0x01)\n        /* \"#utility.yul\":3243:3298   */\n      swap1\n      swap2\n      and\n        /* \"#utility.yul\":3225:3299   */\n      dup2\n      mstore\n        /* \"#utility.yul\":3213:3215   */\n      0x20\n        /* \"#utility.yul\":3198:3216   */\n      add\n        /* \"SocialScore.sol\":1012:1032  address public owner */\n      tag_21\n        /* \"#utility.yul\":3079:3305   */\n      jump\n        /* \"SocialScore.sol\":1203:1583  function updateDefiActions(... */\n    tag_9:\n      tag_23\n      tag_47\n      calldatasize\n      0x04\n      tag_48\n      jump\t// in\n    tag_47:\n      tag_49\n      jump\t// in\n        /* \"SocialScore.sol\":2305:2678  function updateTokenActions(... */\n    tag_10:\n      tag_23\n      tag_51\n      calldatasize\n      0x04\n      tag_48\n      jump\t// in\n    tag_51:\n      tag_52\n      jump\t// in\n        /* \"SocialScore.sol\":3487:3646  function getGeneralActions(... */\n    tag_12:\n      tag_56\n      tag_57\n      calldatasize\n      0x04\n      tag_19\n      jump\t// in\n    tag_57:\n      0x40\n      dup1\n      mload\n      dup1\n      dup3\n      add\n      swap1\n      swap2\n      mstore\n      0x00\n      dup1\n      dup3\n      mstore\n      0x20\n      dup3\n      add\n      mstore\n      pop\n      sub(shl(0xa0, 0x01), 0x01)\n        /* \"SocialScore.sol\":3606:3623  userScores[_user] */\n      and\n        /* \"SocialScore.sol\":3606:3616  userScores */\n      0x00\n        /* \"SocialScore.sol\":3606:3623  userScores[_user] */\n      swap1\n      dup2\n      mstore\n      0x20\n      dup2\n      dup2\n      mstore\n      0x40\n      swap2\n      dup3\n      swap1\n      keccak256\n        /* \"SocialScore.sol\":3599:3639  return userScores[_user].general_actions */\n      dup3\n      mload\n      dup1\n      dup5\n      add\n      swap1\n      swap4\n      mstore\n        /* \"SocialScore.sol\":3606:3639  userScores[_user].general_actions */\n      0x0f\n      dup2\n      add\n        /* \"SocialScore.sol\":3599:3639  return userScores[_user].general_actions */\n      sload\n      dup4\n      mstore\n      0x10\n      add\n      sload\n      swap1\n      dup3\n      add\n      mstore\n      swap1\n        /* \"SocialScore.sol\":3487:3646  function getGeneralActions(... */\n      jump\n    tag_56:\n      mload(0x40)\n      tag_21\n      swap2\n      swap1\n      tag_60\n      jump\t// in\n        /* \"SocialScore.sol\":2684:3019  function updateGeneralActions(... */\n    tag_13:\n      tag_23\n      tag_62\n      calldatasize\n      0x04\n      tag_63\n      jump\t// in\n    tag_62:\n      tag_64\n      jump\t// in\n        /* \"SocialScore.sol\":1589:1934  function updateDaoActions(... */\n    tag_26:\n        /* \"SocialScore.sol\":1092:1097  owner */\n      and(sub(shl(0xa0, 0x01), 0x01), sload(0x01))\n        /* \"SocialScore.sol\":1078:1088  msg.sender */\n      caller\n        /* \"SocialScore.sol\":1078:1097  msg.sender == owner */\n      eq\n        /* \"SocialScore.sol\":1070:1124  require(msg.sender == owner, 'Not the contract owner') */\n      tag_66\n      jumpi\n      mload(0x40)\n      shl(0xe5, 0x461bcd)\n      dup2\n      mstore\n        /* \"#utility.yul\":4572:4574   */\n      0x20\n        /* \"SocialScore.sol\":1070:1124  require(msg.sender == owner, 'Not the contract owner') */\n      0x04\n      dup3\n      add\n        /* \"#utility.yul\":4554:4575   */\n      mstore\n        /* \"#utility.yul\":4611:4613   */\n      0x16\n        /* \"#utility.yul\":4591:4609   */\n      0x24\n      dup3\n      add\n        /* \"#utility.yul\":4584:4614   */\n      mstore\n      shl(0x51, 0x2737ba103a34329031b7b73a3930b1ba1037bbb732b9)\n        /* \"#utility.yul\":4630:4648   */\n      0x44\n      dup3\n      add\n        /* \"#utility.yul\":4623:4675   */\n      mstore\n        /* \"#utility.yul\":4692:4710   */\n      0x64\n      add\n        /* \"SocialScore.sol\":1070:1124  require(msg.sender == owner, 'Not the contract owner') */\n    tag_67:\n      mload(0x40)\n      dup1\n      swap2\n      sub\n      swap1\n      revert\n    tag_66:\n        /* \"SocialScore.sol\":1795:1893  DaoActions(... */\n      0x40\n      dup1\n      mload\n      0x60\n      dup2\n      add\n      dup3\n      mstore\n      dup5\n      dup2\n      mstore\n      0x20\n      dup1\n      dup3\n      add\n      dup6\n      dup2\n      mstore\n      dup3\n      dup5\n      add\n      dup6\n      dup2\n      mstore\n      sub(shl(0xa0, 0x01), 0x01)\n        /* \"SocialScore.sol\":1763:1780  userScores[_user] */\n      dup10\n      and\n      0x00\n      dup2\n      dup2\n      mstore\n      swap4\n      dup5\n      swap1\n      mstore\n      dup6\n      dup5\n      keccak256\n        /* \"SocialScore.sol\":1763:1893  userScores[_user].dao_actions = DaoActions(... */\n      swap5\n      mload\n        /* \"SocialScore.sol\":1763:1792  userScores[_user].dao_actions */\n      0x04\n      dup7\n      add\n        /* \"SocialScore.sol\":1763:1893  userScores[_user].dao_actions = DaoActions(... */\n      sstore\n      swap2\n      mload\n      0x05\n      dup6\n      add\n      sstore\n      mload\n      0x06\n      swap1\n      swap4\n      add\n      swap3\n      swap1\n      swap3\n      sstore\n        /* \"SocialScore.sol\":1908:1927  ScoreUpdated(_user) */\n      swap2\n      mload\n        /* \"SocialScore.sol\":1763:1780  userScores[_user] */\n      swap1\n      swap2\n        /* \"SocialScore.sol\":1908:1927  ScoreUpdated(_user) */\n      0xe1dda2a662a12b367401eb9a8eea1a64eaf52a0498289f48cecf72fc56be5cdc\n      swap2\n      log2\n        /* \"SocialScore.sol\":1589:1934  function updateDaoActions(... */\n      pop\n      pop\n      pop\n      pop\n      jump\t// out\n        /* \"SocialScore.sol\":3025:3175  function getDefiActions(... */\n    tag_29:\n        /* \"SocialScore.sol\":3101:3119  DefiActions memory */\n      tag_70\n      mload(0x40)\n      dup1\n      0x80\n      add\n      0x40\n      mstore\n      dup1\n      0x00\n      dup2\n      mstore\n      0x20\n      add\n      0x00\n      dup2\n      mstore\n      0x20\n      add\n      0x00\n      dup2\n      mstore\n      0x20\n      add\n      0x00\n      dup2\n      mstore\n      pop\n      swap1\n      jump\n    tag_70:\n      pop\n      sub(shl(0xa0, 0x01), 0x01)\n        /* \"SocialScore.sol\":3138:3155  userScores[_user] */\n      and\n        /* \"SocialScore.sol\":3138:3148  userScores */\n      0x00\n        /* \"SocialScore.sol\":3138:3155  userScores[_user] */\n      swap1\n      dup2\n      mstore\n      0x20\n      dup2\n      dup2\n      mstore\n      0x40\n      swap2\n      dup3\n      swap1\n      keccak256\n        /* \"SocialScore.sol\":3131:3168  return userScores[_user].defi_actions */\n      dup3\n      mload\n      0x80\n      dup2\n      add\n      dup5\n      mstore\n      dup2\n      sload\n      dup2\n      mstore\n      0x01\n      dup3\n      add\n      sload\n      swap3\n      dup2\n      add\n      swap3\n      swap1\n      swap3\n      mstore\n      0x02\n      dup2\n      add\n      sload\n      swap3\n      dup3\n      add\n      swap3\n      swap1\n      swap3\n      mstore\n      0x03\n      swap1\n      swap2\n      add\n      sload\n      0x60\n      dup3\n      add\n      mstore\n      swap1\n        /* \"SocialScore.sol\":3025:3175  function getDefiActions(... */\n      jump\t// out\n        /* \"SocialScore.sol\":3334:3481  function getNftActions(... */\n    tag_34:\n        /* \"SocialScore.sol\":3409:3426  NftActions memory */\n      tag_73\n      mload(0x40)\n      dup1\n      0x80\n      add\n      0x40\n      mstore\n      dup1\n      0x00\n      dup2\n      mstore\n      0x20\n      add\n      0x00\n      dup2\n      mstore\n      0x20\n      add\n      0x00\n      dup2\n      mstore\n      0x20\n      add\n      0x00\n      dup2\n      mstore\n      pop\n      swap1\n      jump\n    tag_73:\n      pop\n      sub(shl(0xa0, 0x01), 0x01)\n        /* \"SocialScore.sol\":3445:3462  userScores[_user] */\n      and\n        /* \"SocialScore.sol\":3445:3455  userScores */\n      0x00\n        /* \"SocialScore.sol\":3445:3462  userScores[_user] */\n      swap1\n      dup2\n      mstore\n      0x20\n      dup2\n      dup2\n      mstore\n      0x40\n      swap2\n      dup3\n      swap1\n      keccak256\n        /* \"SocialScore.sol\":3438:3474  return userScores[_user].nft_actions */\n      dup3\n      mload\n      0x80\n      dup2\n      add\n      dup5\n      mstore\n        /* \"SocialScore.sol\":3445:3474  userScores[_user].nft_actions */\n      0x0b\n      dup3\n      add\n        /* \"SocialScore.sol\":3438:3474  return userScores[_user].nft_actions */\n      sload\n      dup2\n      mstore\n      0x0c\n      dup3\n      add\n      sload\n      swap3\n      dup2\n      add\n      swap3\n      swap1\n      swap3\n      mstore\n      0x0d\n      dup2\n      add\n      sload\n      swap3\n      dup3\n      add\n      swap3\n      swap1\n      swap3\n      mstore\n      0x0e\n      swap1\n      swap2\n      add\n      sload\n      0x60\n      dup3\n      add\n      mstore\n      swap1\n        /* \"SocialScore.sol\":3334:3481  function getNftActions(... */\n      jump\t// out\n        /* \"SocialScore.sol\":3181:3328  function getDaoActions(... */\n    tag_39:\n        /* \"SocialScore.sol\":3256:3273  DaoActions memory */\n      tag_76\n      mload(0x40)\n      dup1\n      0x60\n      add\n      0x40\n      mstore\n      dup1\n      0x00\n      dup2\n      mstore\n      0x20\n      add\n      0x00\n      dup2\n      mstore\n      0x20\n      add\n      0x00\n      dup2\n      mstore\n      pop\n      swap1\n      jump\n    tag_76:\n      pop\n      sub(shl(0xa0, 0x01), 0x01)\n        /* \"SocialScore.sol\":3292:3309  userScores[_user] */\n      and\n        /* \"SocialScore.sol\":3292:3302  userScores */\n      0x00\n        /* \"SocialScore.sol\":3292:3309  userScores[_user] */\n      swap1\n      dup2\n      mstore\n      0x20\n      dup2\n      dup2\n      mstore\n      0x40\n      swap2\n      dup3\n      swap1\n      keccak256\n        /* \"SocialScore.sol\":3285:3321  return userScores[_user].dao_actions */\n      dup3\n      mload\n      0x60\n      dup2\n      add\n      dup5\n      mstore\n        /* \"SocialScore.sol\":3292:3321  userScores[_user].dao_actions */\n      0x04\n      dup3\n      add\n        /* \"SocialScore.sol\":3285:3321  return userScores[_user].dao_actions */\n      sload\n      dup2\n      mstore\n      0x05\n      dup3\n      add\n      sload\n      swap3\n      dup2\n      add\n      swap3\n      swap1\n      swap3\n      mstore\n      0x06\n      add\n      sload\n      swap2\n      dup2\n      add\n      swap2\n      swap1\n      swap2\n      mstore\n      swap1\n        /* \"SocialScore.sol\":3181:3328  function getDaoActions(... */\n      jump\t// out\n        /* \"SocialScore.sol\":1203:1583  function updateDefiActions(... */\n    tag_49:\n        /* \"SocialScore.sol\":1092:1097  owner */\n      and(sub(shl(0xa0, 0x01), 0x01), sload(0x01))\n        /* \"SocialScore.sol\":1078:1088  msg.sender */\n      caller\n        /* \"SocialScore.sol\":1078:1097  msg.sender == owner */\n      eq\n        /* \"SocialScore.sol\":1070:1124  require(msg.sender == owner, 'Not the contract owner') */\n      tag_80\n      jumpi\n      mload(0x40)\n      shl(0xe5, 0x461bcd)\n      dup2\n      mstore\n        /* \"#utility.yul\":4572:4574   */\n      0x20\n        /* \"SocialScore.sol\":1070:1124  require(msg.sender == owner, 'Not the contract owner') */\n      0x04\n      dup3\n      add\n        /* \"#utility.yul\":4554:4575   */\n      mstore\n        /* \"#utility.yul\":4611:4613   */\n      0x16\n        /* \"#utility.yul\":4591:4609   */\n      0x24\n      dup3\n      add\n        /* \"#utility.yul\":4584:4614   */\n      mstore\n      shl(0x51, 0x2737ba103a34329031b7b73a3930b1ba1037bbb732b9)\n        /* \"#utility.yul\":4630:4648   */\n      0x44\n      dup3\n      add\n        /* \"#utility.yul\":4623:4675   */\n      mstore\n        /* \"#utility.yul\":4692:4710   */\n      0x64\n      add\n        /* \"SocialScore.sol\":1070:1124  require(msg.sender == owner, 'Not the contract owner') */\n      tag_67\n        /* \"#utility.yul\":4370:4716   */\n      jump\n        /* \"SocialScore.sol\":1070:1124  require(msg.sender == owner, 'Not the contract owner') */\n    tag_80:\n        /* \"SocialScore.sol\":1429:1542  DefiActions(... */\n      0x40\n      dup1\n      mload\n      0x80\n      dup2\n      add\n      dup3\n      mstore\n      dup6\n      dup2\n      mstore\n      0x20\n      dup1\n      dup3\n      add\n      dup7\n      dup2\n      mstore\n      dup3\n      dup5\n      add\n      dup7\n      dup2\n      mstore\n      0x60\n      dup5\n      add\n      dup7\n      dup2\n      mstore\n      sub(shl(0xa0, 0x01), 0x01)\n        /* \"SocialScore.sol\":1396:1413  userScores[_user] */\n      dup12\n      and\n      0x00\n      dup2\n      dup2\n      mstore\n      swap5\n      dup6\n      swap1\n      mstore\n      dup7\n      dup6\n      keccak256\n        /* \"SocialScore.sol\":1396:1542  userScores[_user].defi_actions = DefiActions(... */\n      swap6\n      mload\n      dup7\n      sstore\n      swap3\n      mload\n      0x01\n      dup7\n      add\n      sstore\n      swap1\n      mload\n      0x02\n      dup6\n      add\n      sstore\n      mload\n      0x03\n      swap1\n      swap4\n      add\n      swap3\n      swap1\n      swap3\n      sstore\n        /* \"SocialScore.sol\":1557:1576  ScoreUpdated(_user) */\n      swap2\n      mload\n        /* \"SocialScore.sol\":1396:1413  userScores[_user] */\n      swap1\n      swap2\n        /* \"SocialScore.sol\":1557:1576  ScoreUpdated(_user) */\n      0xe1dda2a662a12b367401eb9a8eea1a64eaf52a0498289f48cecf72fc56be5cdc\n      swap2\n      log2\n        /* \"SocialScore.sol\":1203:1583  function updateDefiActions(... */\n      pop\n      pop\n      pop\n      pop\n      pop\n      jump\t// out\n        /* \"SocialScore.sol\":2305:2678  function updateTokenActions(... */\n    tag_52:\n        /* \"SocialScore.sol\":1092:1097  owner */\n      and(sub(shl(0xa0, 0x01), 0x01), sload(0x01))\n        /* \"SocialScore.sol\":1078:1088  msg.sender */\n      caller\n        /* \"SocialScore.sol\":1078:1097  msg.sender == owner */\n      eq\n        /* \"SocialScore.sol\":1070:1124  require(msg.sender == owner, 'Not the contract owner') */\n      tag_84\n      jumpi\n      mload(0x40)\n      shl(0xe5, 0x461bcd)\n      dup2\n      mstore\n        /* \"#utility.yul\":4572:4574   */\n      0x20\n        /* \"SocialScore.sol\":1070:1124  require(msg.sender == owner, 'Not the contract owner') */\n      0x04\n      dup3\n      add\n        /* \"#utility.yul\":4554:4575   */\n      mstore\n        /* \"#utility.yul\":4611:4613   */\n      0x16\n        /* \"#utility.yul\":4591:4609   */\n      0x24\n      dup3\n      add\n        /* \"#utility.yul\":4584:4614   */\n      mstore\n      shl(0x51, 0x2737ba103a34329031b7b73a3930b1ba1037bbb732b9)\n        /* \"#utility.yul\":4630:4648   */\n      0x44\n      dup3\n      add\n        /* \"#utility.yul\":4623:4675   */\n      mstore\n        /* \"#utility.yul\":4692:4710   */\n      0x64\n      add\n        /* \"SocialScore.sol\":1070:1124  require(msg.sender == owner, 'Not the contract owner') */\n      tag_67\n        /* \"#utility.yul\":4370:4716   */\n      jump\n        /* \"SocialScore.sol\":1070:1124  require(msg.sender == owner, 'Not the contract owner') */\n    tag_84:\n        /* \"SocialScore.sol\":2528:2637  NftActions(... */\n      0x40\n      dup1\n      mload\n      0x80\n      dup2\n      add\n      dup3\n      mstore\n      dup6\n      dup2\n      mstore\n      0x20\n      dup1\n      dup3\n      add\n      dup7\n      dup2\n      mstore\n      dup3\n      dup5\n      add\n      dup7\n      dup2\n      mstore\n      0x60\n      dup5\n      add\n      dup7\n      dup2\n      mstore\n      sub(shl(0xa0, 0x01), 0x01)\n        /* \"SocialScore.sol\":2496:2513  userScores[_user] */\n      dup12\n      and\n      0x00\n      dup2\n      dup2\n      mstore\n      swap5\n      dup6\n      swap1\n      mstore\n      dup7\n      dup6\n      keccak256\n        /* \"SocialScore.sol\":2496:2637  userScores[_user].nft_actions = NftActions(... */\n      swap6\n      mload\n        /* \"SocialScore.sol\":2496:2525  userScores[_user].nft_actions */\n      0x0b\n      dup8\n      add\n        /* \"SocialScore.sol\":2496:2637  userScores[_user].nft_actions = NftActions(... */\n      sstore\n      swap3\n      mload\n      0x0c\n      dup7\n      add\n      sstore\n      swap1\n      mload\n      0x0d\n      dup6\n      add\n      sstore\n      mload\n      0x0e\n      swap1\n      swap4\n      add\n      swap3\n      swap1\n      swap3\n      sstore\n        /* \"SocialScore.sol\":2652:2671  ScoreUpdated(_user) */\n      swap2\n      mload\n        /* \"SocialScore.sol\":2496:2513  userScores[_user] */\n      swap1\n      swap2\n        /* \"SocialScore.sol\":2652:2671  ScoreUpdated(_user) */\n      0xe1dda2a662a12b367401eb9a8eea1a64eaf52a0498289f48cecf72fc56be5cdc\n      swap2\n      log2\n        /* \"SocialScore.sol\":2305:2678  function updateTokenActions(... */\n      pop\n      pop\n      pop\n      pop\n      pop\n      jump\t// out\n        /* \"SocialScore.sol\":2684:3019  function updateGeneralActions(... */\n    tag_64:\n        /* \"SocialScore.sol\":1092:1097  owner */\n      and(sub(shl(0xa0, 0x01), 0x01), sload(0x01))\n        /* \"SocialScore.sol\":1078:1088  msg.sender */\n      caller\n        /* \"SocialScore.sol\":1078:1097  msg.sender == owner */\n      eq\n        /* \"SocialScore.sol\":1070:1124  require(msg.sender == owner, 'Not the contract owner') */\n      tag_95\n      jumpi\n      mload(0x40)\n      shl(0xe5, 0x461bcd)\n      dup2\n      mstore\n        /* \"#utility.yul\":4572:4574   */\n      0x20\n        /* \"SocialScore.sol\":1070:1124  require(msg.sender == owner, 'Not the contract owner') */\n      0x04\n      dup3\n      add\n        /* \"#utility.yul\":4554:4575   */\n      mstore\n        /* \"#utility.yul\":4611:4613   */\n      0x16\n        /* \"#utility.yul\":4591:4609   */\n      0x24\n      dup3\n      add\n        /* \"#utility.yul\":4584:4614   */\n      mstore\n      shl(0x51, 0x2737ba103a34329031b7b73a3930b1ba1037bbb732b9)\n        /* \"#utility.yul\":4630:4648   */\n      0x44\n      dup3\n      add\n        /* \"#utility.yul\":4623:4675   */\n      mstore\n        /* \"#utility.yul\":4692:4710   */\n      0x64\n      add\n        /* \"SocialScore.sol\":1070:1124  require(msg.sender == owner, 'Not the contract owner') */\n      tag_67\n        /* \"#utility.yul\":4370:4716   */\n      jump\n        /* \"SocialScore.sol\":1070:1124  require(msg.sender == owner, 'Not the contract owner') */\n    tag_95:\n        /* \"SocialScore.sol\":2885:2978  GeneralActions(... */\n      0x40\n      dup1\n      mload\n      dup1\n      dup3\n      add\n      dup3\n      mstore\n      dup4\n      dup2\n      mstore\n      0x20\n      dup1\n      dup3\n      add\n      dup5\n      dup2\n      mstore\n      sub(shl(0xa0, 0x01), 0x01)\n        /* \"SocialScore.sol\":2849:2866  userScores[_user] */\n      dup8\n      and\n      0x00\n      dup2\n      dup2\n      mstore\n      swap3\n      dup4\n      swap1\n      mstore\n      dup5\n      dup4\n      keccak256\n        /* \"SocialScore.sol\":2849:2978  userScores[_user].general_actions = GeneralActions(... */\n      swap4\n      mload\n        /* \"SocialScore.sol\":2849:2882  userScores[_user].general_actions */\n      0x0f\n      dup6\n      add\n        /* \"SocialScore.sol\":2849:2978  userScores[_user].general_actions = GeneralActions(... */\n      sstore\n      swap1\n      mload\n      0x10\n      swap1\n      swap4\n      add\n      swap3\n      swap1\n      swap3\n      sstore\n        /* \"SocialScore.sol\":2993:3012  ScoreUpdated(_user) */\n      swap2\n      mload\n        /* \"SocialScore.sol\":2849:2866  userScores[_user] */\n      swap1\n      swap2\n        /* \"SocialScore.sol\":2993:3012  ScoreUpdated(_user) */\n      0xe1dda2a662a12b367401eb9a8eea1a64eaf52a0498289f48cecf72fc56be5cdc\n      swap2\n      log2\n        /* \"SocialScore.sol\":2684:3019  function updateGeneralActions(... */\n      pop\n      pop\n      pop\n      jump\t// out\n        /* \"#utility.yul\":14:210   */\n    tag_98:\n        /* \"#utility.yul\":82:102   */\n      dup1\n      calldataload\n      sub(shl(0xa0, 0x01), 0x01)\n        /* \"#utility.yul\":131:185   */\n      dup2\n      and\n        /* \"#utility.yul\":121:186   */\n      dup2\n      eq\n        /* \"#utility.yul\":111:204   */\n      tag_104\n      jumpi\n        /* \"#utility.yul\":200:201   */\n      0x00\n        /* \"#utility.yul\":197:198   */\n      dup1\n        /* \"#utility.yul\":190:202   */\n      revert\n        /* \"#utility.yul\":111:204   */\n    tag_104:\n        /* \"#utility.yul\":14:210   */\n      swap2\n      swap1\n      pop\n      jump\t// out\n        /* \"#utility.yul\":215:401   */\n    tag_19:\n        /* \"#utility.yul\":274:280   */\n      0x00\n        /* \"#utility.yul\":327:329   */\n      0x20\n        /* \"#utility.yul\":315:324   */\n      dup3\n        /* \"#utility.yul\":306:313   */\n      dup5\n        /* \"#utility.yul\":302:325   */\n      sub\n        /* \"#utility.yul\":298:330   */\n      slt\n        /* \"#utility.yul\":295:347   */\n      iszero\n      tag_106\n      jumpi\n        /* \"#utility.yul\":343:344   */\n      0x00\n        /* \"#utility.yul\":340:341   */\n      dup1\n        /* \"#utility.yul\":333:345   */\n      revert\n        /* \"#utility.yul\":295:347   */\n    tag_106:\n        /* \"#utility.yul\":366:395   */\n      tag_107\n        /* \"#utility.yul\":385:394   */\n      dup3\n        /* \"#utility.yul\":366:395   */\n      tag_98\n      jump\t// in\n    tag_107:\n        /* \"#utility.yul\":356:395   */\n      swap4\n        /* \"#utility.yul\":215:401   */\n      swap3\n      pop\n      pop\n      pop\n      jump\t// out\n        /* \"#utility.yul\":1909:2300   */\n    tag_25:\n        /* \"#utility.yul\":1995:2001   */\n      0x00\n        /* \"#utility.yul\":2003:2009   */\n      dup1\n        /* \"#utility.yul\":2011:2017   */\n      0x00\n        /* \"#utility.yul\":2019:2025   */\n      dup1\n        /* \"#utility.yul\":2072:2075   */\n      0x80\n        /* \"#utility.yul\":2060:2069   */\n      dup6\n        /* \"#utility.yul\":2051:2058   */\n      dup8\n        /* \"#utility.yul\":2047:2070   */\n      sub\n        /* \"#utility.yul\":2043:2076   */\n      slt\n        /* \"#utility.yul\":2040:2093   */\n      iszero\n      tag_118\n      jumpi\n        /* \"#utility.yul\":2089:2090   */\n      0x00\n        /* \"#utility.yul\":2086:2087   */\n      dup1\n        /* \"#utility.yul\":2079:2091   */\n      revert\n        /* \"#utility.yul\":2040:2093   */\n    tag_118:\n        /* \"#utility.yul\":2112:2141   */\n      tag_119\n        /* \"#utility.yul\":2131:2140   */\n      dup6\n        /* \"#utility.yul\":2112:2141   */\n      tag_98\n      jump\t// in\n    tag_119:\n        /* \"#utility.yul\":2102:2141   */\n      swap7\n        /* \"#utility.yul\":2188:2190   */\n      0x20\n        /* \"#utility.yul\":2173:2191   */\n      dup7\n      add\n        /* \"#utility.yul\":2160:2192   */\n      calldataload\n      swap7\n      pop\n        /* \"#utility.yul\":2239:2241   */\n      0x40\n        /* \"#utility.yul\":2224:2242   */\n      dup7\n      add\n        /* \"#utility.yul\":2211:2243   */\n      calldataload\n      swap6\n        /* \"#utility.yul\":2290:2292   */\n      0x60\n        /* \"#utility.yul\":2275:2293   */\n      add\n        /* \"#utility.yul\":2262:2294   */\n      calldataload\n      swap5\n      pop\n        /* \"#utility.yul\":1909:2300   */\n      swap3\n      pop\n      pop\n      pop\n      jump\t// out\n        /* \"#utility.yul\":2305:2560   */\n    tag_31:\n        /* \"#utility.yul\":483:495   */\n      dup2\n      mload\n        /* \"#utility.yul\":471:496   */\n      dup2\n      mstore\n        /* \"#utility.yul\":545:549   */\n      0x20\n        /* \"#utility.yul\":534:550   */\n      dup1\n      dup4\n      add\n        /* \"#utility.yul\":528:551   */\n      mload\n        /* \"#utility.yul\":512:526   */\n      swap1\n      dup3\n      add\n        /* \"#utility.yul\":505:552   */\n      mstore\n        /* \"#utility.yul\":601:605   */\n      0x40\n        /* \"#utility.yul\":590:606   */\n      dup1\n      dup4\n      add\n        /* \"#utility.yul\":584:607   */\n      mload\n        /* \"#utility.yul\":568:582   */\n      swap1\n      dup3\n      add\n        /* \"#utility.yul\":561:608   */\n      mstore\n        /* \"#utility.yul\":657:661   */\n      0x60\n        /* \"#utility.yul\":646:662   */\n      dup1\n      dup4\n      add\n        /* \"#utility.yul\":640:663   */\n      mload\n        /* \"#utility.yul\":624:638   */\n      swap1\n      dup3\n      add\n        /* \"#utility.yul\":617:664   */\n      mstore\n        /* \"#utility.yul\":2493:2496   */\n      0x80\n        /* \"#utility.yul\":2478:2497   */\n      dup2\n      add\n        /* \"#utility.yul\":2506:2554   */\n    tag_121:\n        /* \"#utility.yul\":2305:2560   */\n      swap3\n      swap2\n      pop\n      pop\n      jump\t// out\n        /* \"#utility.yul\":2823:3074   */\n    tag_41:\n        /* \"#utility.yul\":751:763   */\n      dup2\n      mload\n        /* \"#utility.yul\":739:764   */\n      dup2\n      mstore\n        /* \"#utility.yul\":813:817   */\n      0x20\n        /* \"#utility.yul\":802:818   */\n      dup1\n      dup4\n      add\n        /* \"#utility.yul\":796:819   */\n      mload\n        /* \"#utility.yul\":780:794   */\n      swap1\n      dup3\n      add\n        /* \"#utility.yul\":773:820   */\n      mstore\n        /* \"#utility.yul\":869:873   */\n      0x40\n        /* \"#utility.yul\":858:874   */\n      dup1\n      dup4\n      add\n        /* \"#utility.yul\":852:875   */\n      mload\n        /* \"#utility.yul\":836:850   */\n      swap1\n      dup3\n      add\n        /* \"#utility.yul\":829:876   */\n      mstore\n        /* \"#utility.yul\":3009:3011   */\n      0x60\n        /* \"#utility.yul\":2994:3012   */\n      dup2\n      add\n        /* \"#utility.yul\":3021:3068   */\n      tag_121\n        /* \"#utility.yul\":675:882   */\n      jump\n        /* \"#utility.yul\":3310:3770   */\n    tag_48:\n        /* \"#utility.yul\":3405:3411   */\n      0x00\n        /* \"#utility.yul\":3413:3419   */\n      dup1\n        /* \"#utility.yul\":3421:3427   */\n      0x00\n        /* \"#utility.yul\":3429:3435   */\n      dup1\n        /* \"#utility.yul\":3437:3443   */\n      0x00\n        /* \"#utility.yul\":3490:3493   */\n      0xa0\n        /* \"#utility.yul\":3478:3487   */\n      dup7\n        /* \"#utility.yul\":3469:3476   */\n      dup9\n        /* \"#utility.yul\":3465:3488   */\n      sub\n        /* \"#utility.yul\":3461:3494   */\n      slt\n        /* \"#utility.yul\":3458:3511   */\n      iszero\n      tag_128\n      jumpi\n        /* \"#utility.yul\":3507:3508   */\n      0x00\n        /* \"#utility.yul\":3504:3505   */\n      dup1\n        /* \"#utility.yul\":3497:3509   */\n      revert\n        /* \"#utility.yul\":3458:3511   */\n    tag_128:\n        /* \"#utility.yul\":3530:3559   */\n      tag_129\n        /* \"#utility.yul\":3549:3558   */\n      dup7\n        /* \"#utility.yul\":3530:3559   */\n      tag_98\n      jump\t// in\n    tag_129:\n        /* \"#utility.yul\":3520:3559   */\n      swap8\n        /* \"#utility.yul\":3606:3608   */\n      0x20\n        /* \"#utility.yul\":3591:3609   */\n      dup8\n      add\n        /* \"#utility.yul\":3578:3610   */\n      calldataload\n      swap8\n      pop\n        /* \"#utility.yul\":3657:3659   */\n      0x40\n        /* \"#utility.yul\":3642:3660   */\n      dup8\n      add\n        /* \"#utility.yul\":3629:3661   */\n      calldataload\n      swap7\n        /* \"#utility.yul\":3708:3710   */\n      0x60\n        /* \"#utility.yul\":3693:3711   */\n      dup2\n      add\n        /* \"#utility.yul\":3680:3712   */\n      calldataload\n      swap7\n      pop\n        /* \"#utility.yul\":3759:3762   */\n      0x80\n        /* \"#utility.yul\":3744:3763   */\n      add\n        /* \"#utility.yul\":3731:3764   */\n      calldataload\n      swap5\n      pop\n        /* \"#utility.yul\":3310:3770   */\n      swap3\n      pop\n      pop\n      pop\n      jump\t// out\n        /* \"#utility.yul\":3775:4038   */\n    tag_60:\n        /* \"#utility.yul\":967:979   */\n      dup2\n      mload\n        /* \"#utility.yul\":955:980   */\n      dup2\n      mstore\n        /* \"#utility.yul\":1029:1033   */\n      0x20\n        /* \"#utility.yul\":1018:1034   */\n      dup1\n      dup4\n      add\n        /* \"#utility.yul\":1012:1035   */\n      mload\n        /* \"#utility.yul\":996:1010   */\n      swap1\n      dup3\n      add\n        /* \"#utility.yul\":989:1036   */\n      mstore\n        /* \"#utility.yul\":3969:3971   */\n      0x40\n        /* \"#utility.yul\":3954:3972   */\n      dup2\n      add\n        /* \"#utility.yul\":3981:4032   */\n      tag_121\n        /* \"#utility.yul\":887:1042   */\n      jump\n        /* \"#utility.yul\":4043:4365   */\n    tag_63:\n        /* \"#utility.yul\":4120:4126   */\n      0x00\n        /* \"#utility.yul\":4128:4134   */\n      dup1\n        /* \"#utility.yul\":4136:4142   */\n      0x00\n        /* \"#utility.yul\":4189:4191   */\n      0x60\n        /* \"#utility.yul\":4177:4186   */\n      dup5\n        /* \"#utility.yul\":4168:4175   */\n      dup7\n        /* \"#utility.yul\":4164:4187   */\n      sub\n        /* \"#utility.yul\":4160:4192   */\n      slt\n        /* \"#utility.yul\":4157:4209   */\n      iszero\n      tag_133\n      jumpi\n        /* \"#utility.yul\":4205:4206   */\n      0x00\n        /* \"#utility.yul\":4202:4203   */\n      dup1\n        /* \"#utility.yul\":4195:4207   */\n      revert\n        /* \"#utility.yul\":4157:4209   */\n    tag_133:\n        /* \"#utility.yul\":4228:4257   */\n      tag_134\n        /* \"#utility.yul\":4247:4256   */\n      dup5\n        /* \"#utility.yul\":4228:4257   */\n      tag_98\n      jump\t// in\n    tag_134:\n        /* \"#utility.yul\":4218:4257   */\n      swap6\n        /* \"#utility.yul\":4304:4306   */\n      0x20\n        /* \"#utility.yul\":4289:4307   */\n      dup6\n      add\n        /* \"#utility.yul\":4276:4308   */\n      calldataload\n      swap6\n      pop\n        /* \"#utility.yul\":4355:4357   */\n      0x40\n        /* \"#utility.yul\":4340:4358   */\n      swap1\n      swap5\n      add\n        /* \"#utility.yul\":4327:4359   */\n      calldataload\n      swap4\n        /* \"#utility.yul\":4043:4365   */\n      swap3\n      pop\n      pop\n      pop\n      jump\t// out\n\n    auxdata: 0xa2646970667358221220660654fa3907c29d6025b33fcb5ff0f488a267adfe6d66c3c1fca8eace82234a64736f6c63430008110033\n}\n",
    "bytecode": {
      "linkReferences": {},
      "object": "608060405234801561001057600080fd5b50600180546001600160a01b0319163317905561099a806100326000396000f3fe608060405234801561001057600080fd5b50600436106100c95760003560e01c80638da5cb5b11610081578063c306d1e81161005b578063c306d1e8146102fc578063e0c64a8f1461030f578063f2abb9dd1461037257600080fd5b80638da5cb5b146102be578063aa56a179146102e9578063b86c4728146102fc57600080fd5b80633e41d17d116100b25780633e41d17d1461026b57806355db6f4b1461028b57806375f0d4df1461029e57600080fd5b80631413d4c0146100ce578063183cfcc814610256575b600080fd5b6101b16100dc36600461082f565b6000602081815291815260409081902081516080808201845282548252600183015482860152600283015482850152600383015460608084019190915284518082018652600485015481526005850154818801526006850154818701528551808401875260078601548152600886015481890152600986015481880152600a8601548184015286519384018752600b8601548452600c86015484890152600d86015484880152600e860154928401929092528551808701909652600f8501548652601090940154958501959095529093919285565b604080518651815260208088015181830152878301518284015260609788015188830152865160808301528087015160a08301529582015160c0820152845160e08201528585015161010082015284820151610120820152938601516101408501528251610160850152848301516101808501528201516101a08401529301516101c082015282516101e0820152910151610200820152610220015b60405180910390f35b610269610264366004610851565b610385565b005b61027e61027936600461082f565b610453565b60405161024d919061088a565b61027e61029936600461082f565b6104ca565b6102b16102ac36600461082f565b610544565b60405161024d91906108b7565b6001546102d1906001600160a01b031681565b6040516001600160a01b03909116815260200161024d565b6102696102f73660046108d8565b6105ab565b61026961030a3660046108d8565b610680565b61036561031d36600461082f565b6040805180820190915260008082526020820152506001600160a01b0316600090815260208181526040918290208251808401909352600f8101548352601001549082015290565b60405161024d919061091a565b610269610380366004610931565b610758565b6001546001600160a01b031633146103dd5760405162461bcd60e51b81526020600482015260166024820152752737ba103a34329031b7b73a3930b1ba1037bbb732b960511b60448201526064015b60405180910390fd5b6040805160608101825284815260208082018581528284018581526001600160a01b038916600081815293849052858420945160048601559151600585015551600690930192909255915190917fe1dda2a662a12b367401eb9a8eea1a64eaf52a0498289f48cecf72fc56be5cdc91a250505050565b61047e6040518060800160405280600081526020016000815260200160008152602001600081525090565b506001600160a01b031660009081526020818152604091829020825160808101845281548152600182015492810192909252600281015492820192909252600390910154606082015290565b6104f56040518060800160405280600081526020016000815260200160008152602001600081525090565b506001600160a01b0316600090815260208181526040918290208251608081018452600b8201548152600c82015492810192909252600d81015492820192909252600e90910154606082015290565b61056860405180606001604052806000815260200160008152602001600081525090565b506001600160a01b031660009081526020818152604091829020825160608101845260048201548152600582015492810192909252600601549181019190915290565b6001546001600160a01b031633146105fe5760405162461bcd60e51b81526020600482015260166024820152752737ba103a34329031b7b73a3930b1ba1037bbb732b960511b60448201526064016103d4565b604080516080810182528581526020808201868152828401868152606084018681526001600160a01b038b1660008181529485905286852095518655925160018601559051600285015551600390930192909255915190917fe1dda2a662a12b367401eb9a8eea1a64eaf52a0498289f48cecf72fc56be5cdc91a25050505050565b6001546001600160a01b031633146106d35760405162461bcd60e51b81526020600482015260166024820152752737ba103a34329031b7b73a3930b1ba1037bbb732b960511b60448201526064016103d4565b604080516080810182528581526020808201868152828401868152606084018681526001600160a01b038b166000818152948590528685209551600b8701559251600c8601559051600d85015551600e90930192909255915190917fe1dda2a662a12b367401eb9a8eea1a64eaf52a0498289f48cecf72fc56be5cdc91a25050505050565b6001546001600160a01b031633146107ab5760405162461bcd60e51b81526020600482015260166024820152752737ba103a34329031b7b73a3930b1ba1037bbb732b960511b60448201526064016103d4565b60408051808201825283815260208082018481526001600160a01b0387166000818152928390528483209351600f8501559051601090930192909255915190917fe1dda2a662a12b367401eb9a8eea1a64eaf52a0498289f48cecf72fc56be5cdc91a2505050565b80356001600160a01b038116811461082a57600080fd5b919050565b60006020828403121561084157600080fd5b61084a82610813565b9392505050565b6000806000806080858703121561086757600080fd5b61087085610813565b966020860135965060408601359560600135945092505050565b81518152602080830151908201526040808301519082015260608083015190820152608081015b92915050565b815181526020808301519082015260408083015190820152606081016108b1565b600080600080600060a086880312156108f057600080fd5b6108f986610813565b97602087013597506040870135966060810135965060800135945092505050565b8151815260208083015190820152604081016108b1565b60008060006060848603121561094657600080fd5b61094f84610813565b9560208501359550604090940135939250505056fea2646970667358221220660654fa3907c29d6025b33fcb5ff0f488a267adfe6d66c3c1fca8eace82234a64736f6c63430008110033",
      "opcodes": "PUSH1 0x80 PUSH1 0x40 MSTORE CALLVALUE DUP1 ISZERO PUSH2 0x10 JUMPI PUSH1 0x0 DUP1 REVERT JUMPDEST POP PUSH1 0x1 DUP1 SLOAD PUSH1 0x1 PUSH1 0x1 PUSH1 0xA0 SHL SUB NOT AND CALLER OR SWAP1 SSTORE PUSH2 0x99A DUP1 PUSH2 0x32 PUSH1 0x0 CODECOPY PUSH1 0x0 RETURN INVALID PUSH1 0x80 PUSH1 0x40 MSTORE CALLVALUE DUP1 ISZERO PUSH2 0x10 JUMPI PUSH1 0x0 DUP1 REVERT JUMPDEST POP PUSH1 0x4 CALLDATASIZE LT PUSH2 0xC9 JUMPI PUSH1 0x0 CALLDATALOAD PUSH1 0xE0 SHR DUP1 PUSH4 0x8DA5CB5B GT PUSH2 0x81 JUMPI DUP1 PUSH4 0xC306D1E8 GT PUSH2 0x5B JUMPI DUP1 PUSH4 0xC306D1E8 EQ PUSH2 0x2FC JUMPI DUP1 PUSH4 0xE0C64A8F EQ PUSH2 0x30F JUMPI DUP1 PUSH4 0xF2ABB9DD EQ PUSH2 0x372 JUMPI PUSH1 0x0 DUP1 REVERT JUMPDEST DUP1 PUSH4 0x8DA5CB5B EQ PUSH2 0x2BE JUMPI DUP1 PUSH4 0xAA56A179 EQ PUSH2 0x2E9 JUMPI DUP1 PUSH4 0xB86C4728 EQ PUSH2 0x2FC JUMPI PUSH1 0x0 DUP1 REVERT JUMPDEST DUP1 PUSH4 0x3E41D17D GT PUSH2 0xB2 JUMPI DUP1 PUSH4 0x3E41D17D EQ PUSH2 0x26B JUMPI DUP1 PUSH4 0x55DB6F4B EQ PUSH2 0x28B JUMPI DUP1 PUSH4 0x75F0D4DF EQ PUSH2 0x29E JUMPI PUSH1 0x0 DUP1 REVERT JUMPDEST DUP1 PUSH4 0x1413D4C0 EQ PUSH2 0xCE JUMPI DUP1 PUSH4 0x183CFCC8 EQ PUSH2 0x256 JUMPI JUMPDEST PUSH1 0x0 DUP1 REVERT JUMPDEST PUSH2 0x1B1 PUSH2 0xDC CALLDATASIZE PUSH1 0x4 PUSH2 0x82F JUMP JUMPDEST PUSH1 0x0 PUSH1 0x20 DUP2 DUP2 MSTORE SWAP2 DUP2 MSTORE PUSH1 0x40 SWAP1 DUP2 SWAP1 KECCAK256 DUP2 MLOAD PUSH1 0x80 DUP1 DUP3 ADD DUP5 MSTORE DUP3 SLOAD DUP3 MSTORE PUSH1 0x1 DUP4 ADD SLOAD DUP3 DUP7 ADD MSTORE PUSH1 0x2 DUP4 ADD SLOAD DUP3 DUP6 ADD MSTORE PUSH1 0x3 DUP4 ADD SLOAD PUSH1 0x60 DUP1 DUP5 ADD SWAP2 SWAP1 SWAP2 MSTORE DUP5 MLOAD DUP1 DUP3 ADD DUP7 MSTORE PUSH1 0x4 DUP6 ADD SLOAD DUP2 MSTORE PUSH1 0x5 DUP6 ADD SLOAD DUP2 DUP9 ADD MSTORE PUSH1 0x6 DUP6 ADD SLOAD DUP2 DUP8 ADD MSTORE DUP6 MLOAD DUP1 DUP5 ADD DUP8 MSTORE PUSH1 0x7 DUP7 ADD SLOAD DUP2 MSTORE PUSH1 0x8 DUP7 ADD SLOAD DUP2 DUP10 ADD MSTORE PUSH1 0x9 DUP7 ADD SLOAD DUP2 DUP9 ADD MSTORE PUSH1 0xA DUP7 ADD SLOAD DUP2 DUP5 ADD MSTORE DUP7 MLOAD SWAP4 DUP5 ADD DUP8 MSTORE PUSH1 0xB DUP7 ADD SLOAD DUP5 MSTORE PUSH1 0xC DUP7 ADD SLOAD DUP5 DUP10 ADD MSTORE PUSH1 0xD DUP7 ADD SLOAD DUP5 DUP9 ADD MSTORE PUSH1 0xE DUP7 ADD SLOAD SWAP3 DUP5 ADD SWAP3 SWAP1 SWAP3 MSTORE DUP6 MLOAD DUP1 DUP8 ADD SWAP1 SWAP7 MSTORE PUSH1 0xF DUP6 ADD SLOAD DUP7 MSTORE PUSH1 0x10 SWAP1 SWAP5 ADD SLOAD SWAP6 DUP6 ADD SWAP6 SWAP1 SWAP6 MSTORE SWAP1 SWAP4 SWAP2 SWAP3 DUP6 JUMP JUMPDEST PUSH1 0x40 DUP1 MLOAD DUP7 MLOAD DUP2 MSTORE PUSH1 0x20 DUP1 DUP9 ADD MLOAD DUP2 DUP4 ADD MSTORE DUP8 DUP4 ADD MLOAD DUP3 DUP5 ADD MSTORE PUSH1 0x60 SWAP8 DUP9 ADD MLOAD DUP9 DUP4 ADD MSTORE DUP7 MLOAD PUSH1 0x80 DUP4 ADD MSTORE DUP1 DUP8 ADD MLOAD PUSH1 0xA0 DUP4 ADD MSTORE SWAP6 DUP3 ADD MLOAD PUSH1 0xC0 DUP3 ADD MSTORE DUP5 MLOAD PUSH1 0xE0 DUP3 ADD MSTORE DUP6 DUP6 ADD MLOAD PUSH2 0x100 DUP3 ADD MSTORE DUP5 DUP3 ADD MLOAD PUSH2 0x120 DUP3 ADD MSTORE SWAP4 DUP7 ADD MLOAD PUSH2 0x140 DUP6 ADD MSTORE DUP3 MLOAD PUSH2 0x160 DUP6 ADD MSTORE DUP5 DUP4 ADD MLOAD PUSH2 0x180 DUP6 ADD MSTORE DUP3 ADD MLOAD PUSH2 0x1A0 DUP5 ADD MSTORE SWAP4 ADD MLOAD PUSH2 0x1C0 DUP3 ADD MSTORE DUP3 MLOAD PUSH2 0x1E0 DUP3 ADD MSTORE SWAP2 ADD MLOAD PUSH2 0x200 DUP3 ADD MSTORE PUSH2 0x220 ADD JUMPDEST PUSH1 0x40 MLOAD DUP1 SWAP2 SUB SWAP1 RETURN JUMPDEST PUSH2 0x269 PUSH2 0x264 CALLDATASIZE PUSH1 0x4 PUSH2 0x851 JUMP JUMPDEST PUSH2 0x385 JUMP JUMPDEST STOP JUMPDEST PUSH2 0x27E PUSH2 0x279 CALLDATASIZE PUSH1 0x4 PUSH2 0x82F JUMP JUMPDEST PUSH2 0x453 JUMP JUMPDEST PUSH1 0x40 MLOAD PUSH2 0x24D SWAP2 SWAP1 PUSH2 0x88A JUMP JUMPDEST PUSH2 0x27E PUSH2 0x299 CALLDATASIZE PUSH1 0x4 PUSH2 0x82F JUMP JUMPDEST PUSH2 0x4CA JUMP JUMPDEST PUSH2 0x2B1 PUSH2 0x2AC CALLDATASIZE PUSH1 0x4 PUSH2 0x82F JUMP JUMPDEST PUSH2 0x544 JUMP JUMPDEST PUSH1 0x40 MLOAD PUSH2 0x24D SWAP2 SWAP1 PUSH2 0x8B7 JUMP JUMPDEST PUSH1 0x1 SLOAD PUSH2 0x2D1 SWAP1 PUSH1 0x1 PUSH1 0x1 PUSH1 0xA0 SHL SUB AND DUP2 JUMP JUMPDEST PUSH1 0x40 MLOAD PUSH1 0x1 PUSH1 0x1 PUSH1 0xA0 SHL SUB SWAP1 SWAP2 AND DUP2 MSTORE PUSH1 0x20 ADD PUSH2 0x24D JUMP JUMPDEST PUSH2 0x269 PUSH2 0x2F7 CALLDATASIZE PUSH1 0x4 PUSH2 0x8D8 JUMP JUMPDEST PUSH2 0x5AB JUMP JUMPDEST PUSH2 0x269 PUSH2 0x30A CALLDATASIZE PUSH1 0x4 PUSH2 0x8D8 JUMP JUMPDEST PUSH2 0x680 JUMP JUMPDEST PUSH2 0x365 PUSH2 0x31D CALLDATASIZE PUSH1 0x4 PUSH2 0x82F JUMP JUMPDEST PUSH1 0x40 DUP1 MLOAD DUP1 DUP3 ADD SWAP1 SWAP2 MSTORE PUSH1 0x0 DUP1 DUP3 MSTORE PUSH1 0x20 DUP3 ADD MSTORE POP PUSH1 0x1 PUSH1 0x1 PUSH1 0xA0 SHL SUB AND PUSH1 0x0 SWAP1 DUP2 MSTORE PUSH1 0x20 DUP2 DUP2 MSTORE PUSH1 0x40 SWAP2 DUP3 SWAP1 KECCAK256 DUP3 MLOAD DUP1 DUP5 ADD SWAP1 SWAP4 MSTORE PUSH1 0xF DUP2 ADD SLOAD DUP4 MSTORE PUSH1 0x10 ADD SLOAD SWAP1 DUP3 ADD MSTORE SWAP1 JUMP JUMPDEST PUSH1 0x40 MLOAD PUSH2 0x24D SWAP2 SWAP1 PUSH2 0x91A JUMP JUMPDEST PUSH2 0x269 PUSH2 0x380 CALLDATASIZE PUSH1 0x4 PUSH2 0x931 JUMP JUMPDEST PUSH2 0x758 JUMP JUMPDEST PUSH1 0x1 SLOAD PUSH1 0x1 PUSH1 0x1 PUSH1 0xA0 SHL SUB AND CALLER EQ PUSH2 0x3DD JUMPI PUSH1 0x40 MLOAD PUSH3 0x461BCD PUSH1 0xE5 SHL DUP2 MSTORE PUSH1 0x20 PUSH1 0x4 DUP3 ADD MSTORE PUSH1 0x16 PUSH1 0x24 DUP3 ADD MSTORE PUSH22 0x2737BA103A34329031B7B73A3930B1BA1037BBB732B9 PUSH1 0x51 SHL PUSH1 0x44 DUP3 ADD MSTORE PUSH1 0x64 ADD JUMPDEST PUSH1 0x40 MLOAD DUP1 SWAP2 SUB SWAP1 REVERT JUMPDEST PUSH1 0x40 DUP1 MLOAD PUSH1 0x60 DUP2 ADD DUP3 MSTORE DUP5 DUP2 MSTORE PUSH1 0x20 DUP1 DUP3 ADD DUP6 DUP2 MSTORE DUP3 DUP5 ADD DUP6 DUP2 MSTORE PUSH1 0x1 PUSH1 0x1 PUSH1 0xA0 SHL SUB DUP10 AND PUSH1 0x0 DUP2 DUP2 MSTORE SWAP4 DUP5 SWAP1 MSTORE DUP6 DUP5 KECCAK256 SWAP5 MLOAD PUSH1 0x4 DUP7 ADD SSTORE SWAP2 MLOAD PUSH1 0x5 DUP6 ADD SSTORE MLOAD PUSH1 0x6 SWAP1 SWAP4 ADD SWAP3 SWAP1 SWAP3 SSTORE SWAP2 MLOAD SWAP1 SWAP2 PUSH32 0xE1DDA2A662A12B367401EB9A8EEA1A64EAF52A0498289F48CECF72FC56BE5CDC SWAP2 LOG2 POP POP POP POP JUMP JUMPDEST PUSH2 0x47E PUSH1 0x40 MLOAD DUP1 PUSH1 0x80 ADD PUSH1 0x40 MSTORE DUP1 PUSH1 0x0 DUP2 MSTORE PUSH1 0x20 ADD PUSH1 0x0 DUP2 MSTORE PUSH1 0x20 ADD PUSH1 0x0 DUP2 MSTORE PUSH1 0x20 ADD PUSH1 0x0 DUP2 MSTORE POP SWAP1 JUMP JUMPDEST POP PUSH1 0x1 PUSH1 0x1 PUSH1 0xA0 SHL SUB AND PUSH1 0x0 SWAP1 DUP2 MSTORE PUSH1 0x20 DUP2 DUP2 MSTORE PUSH1 0x40 SWAP2 DUP3 SWAP1 KECCAK256 DUP3 MLOAD PUSH1 0x80 DUP2 ADD DUP5 MSTORE DUP2 SLOAD DUP2 MSTORE PUSH1 0x1 DUP3 ADD SLOAD SWAP3 DUP2 ADD SWAP3 SWAP1 SWAP3 MSTORE PUSH1 0x2 DUP2 ADD SLOAD SWAP3 DUP3 ADD SWAP3 SWAP1 SWAP3 MSTORE PUSH1 0x3 SWAP1 SWAP2 ADD SLOAD PUSH1 0x60 DUP3 ADD MSTORE SWAP1 JUMP JUMPDEST PUSH2 0x4F5 PUSH1 0x40 MLOAD DUP1 PUSH1 0x80 ADD PUSH1 0x40 MSTORE DUP1 PUSH1 0x0 DUP2 MSTORE PUSH1 0x20 ADD PUSH1 0x0 DUP2 MSTORE PUSH1 0x20 ADD PUSH1 0x0 DUP2 MSTORE PUSH1 0x20 ADD PUSH1 0x0 DUP2 MSTORE POP SWAP1 JUMP JUMPDEST POP PUSH1 0x1 PUSH1 0x1 PUSH1 0xA0 SHL SUB AND PUSH1 0x0 SWAP1 DUP2 MSTORE PUSH1 0x20 DUP2 DUP2 MSTORE PUSH1 0x40 SWAP2 DUP3 SWAP1 KECCAK256 DUP3 MLOAD PUSH1 0x80 DUP2 ADD DUP5 MSTORE PUSH1 0xB DUP3 ADD SLOAD DUP2 MSTORE PUSH1 0xC DUP3 ADD SLOAD SWAP3 DUP2 ADD SWAP3 SWAP1 SWAP3 MSTORE PUSH1 0xD DUP2 ADD SLOAD SWAP3 DUP3 ADD SWAP3 SWAP1 SWAP3 MSTORE PUSH1 0xE SWAP1 SWAP2 ADD SLOAD PUSH1 0x60 DUP3 ADD MSTORE SWAP1 JUMP JUMPDEST PUSH2 0x568 PUSH1 0x40 MLOAD DUP1 PUSH1 0x60 ADD PUSH1 0x40 MSTORE DUP1 PUSH1 0x0 DUP2 MSTORE PUSH1 0x20 ADD PUSH1 0x0 DUP2 MSTORE PUSH1 0x20 ADD PUSH1 0x0 DUP2 MSTORE POP SWAP1 JUMP JUMPDEST POP PUSH1 0x1 PUSH1 0x1 PUSH1 0xA0 SHL SUB AND PUSH1 0x0 SWAP1 DUP2 MSTORE PUSH1 0x20 DUP2 DUP2 MSTORE PUSH1 0x40 SWAP2 DUP3 SWAP1 KECCAK256 DUP3 MLOAD PUSH1 0x60 DUP2 ADD DUP5 MSTORE PUSH1 0x4 DUP3 ADD SLOAD DUP2 MSTORE PUSH1 0x5 DUP3 ADD SLOAD SWAP3 DUP2 ADD SWAP3 SWAP1 SWAP3 MSTORE PUSH1 0x6 ADD SLOAD SWAP2 DUP2 ADD SWAP2 SWAP1 SWAP2 MSTORE SWAP1 JUMP JUMPDEST PUSH1 0x1 SLOAD PUSH1 0x1 PUSH1 0x1 PUSH1 0xA0 SHL SUB AND CALLER EQ PUSH2 0x5FE JUMPI PUSH1 0x40 MLOAD PUSH3 0x461BCD PUSH1 0xE5 SHL DUP2 MSTORE PUSH1 0x20 PUSH1 0x4 DUP3 ADD MSTORE PUSH1 0x16 PUSH1 0x24 DUP3 ADD MSTORE PUSH22 0x2737BA103A34329031B7B73A3930B1BA1037BBB732B9 PUSH1 0x51 SHL PUSH1 0x44 DUP3 ADD MSTORE PUSH1 0x64 ADD PUSH2 0x3D4 JUMP JUMPDEST PUSH1 0x40 DUP1 MLOAD PUSH1 0x80 DUP2 ADD DUP3 MSTORE DUP6 DUP2 MSTORE PUSH1 0x20 DUP1 DUP3 ADD DUP7 DUP2 MSTORE DUP3 DUP5 ADD DUP7 DUP2 MSTORE PUSH1 0x60 DUP5 ADD DUP7 DUP2 MSTORE PUSH1 0x1 PUSH1 0x1 PUSH1 0xA0 SHL SUB DUP12 AND PUSH1 0x0 DUP2 DUP2 MSTORE SWAP5 DUP6 SWAP1 MSTORE DUP7 DUP6 KECCAK256 SWAP6 MLOAD DUP7 SSTORE SWAP3 MLOAD PUSH1 0x1 DUP7 ADD SSTORE SWAP1 MLOAD PUSH1 0x2 DUP6 ADD SSTORE MLOAD PUSH1 0x3 SWAP1 SWAP4 ADD SWAP3 SWAP1 SWAP3 SSTORE SWAP2 MLOAD SWAP1 SWAP2 PUSH32 0xE1DDA2A662A12B367401EB9A8EEA1A64EAF52A0498289F48CECF72FC56BE5CDC SWAP2 LOG2 POP POP POP POP POP JUMP JUMPDEST PUSH1 0x1 SLOAD PUSH1 0x1 PUSH1 0x1 PUSH1 0xA0 SHL SUB AND CALLER EQ PUSH2 0x6D3 JUMPI PUSH1 0x40 MLOAD PUSH3 0x461BCD PUSH1 0xE5 SHL DUP2 MSTORE PUSH1 0x20 PUSH1 0x4 DUP3 ADD MSTORE PUSH1 0x16 PUSH1 0x24 DUP3 ADD MSTORE PUSH22 0x2737BA103A34329031B7B73A3930B1BA1037BBB732B9 PUSH1 0x51 SHL PUSH1 0x44 DUP3 ADD MSTORE PUSH1 0x64 ADD PUSH2 0x3D4 JUMP JUMPDEST PUSH1 0x40 DUP1 MLOAD PUSH1 0x80 DUP2 ADD DUP3 MSTORE DUP6 DUP2 MSTORE PUSH1 0x20 DUP1 DUP3 ADD DUP7 DUP2 MSTORE DUP3 DUP5 ADD DUP7 DUP2 MSTORE PUSH1 0x60 DUP5 ADD DUP7 DUP2 MSTORE PUSH1 0x1 PUSH1 0x1 PUSH1 0xA0 SHL SUB DUP12 AND PUSH1 0x0 DUP2 DUP2 MSTORE SWAP5 DUP6 SWAP1 MSTORE DUP7 DUP6 KECCAK256 SWAP6 MLOAD PUSH1 0xB DUP8 ADD SSTORE SWAP3 MLOAD PUSH1 0xC DUP7 ADD SSTORE SWAP1 MLOAD PUSH1 0xD DUP6 ADD SSTORE MLOAD PUSH1 0xE SWAP1 SWAP4 ADD SWAP3 SWAP1 SWAP3 SSTORE SWAP2 MLOAD SWAP1 SWAP2 PUSH32 0xE1DDA2A662A12B367401EB9A8EEA1A64EAF52A0498289F48CECF72FC56BE5CDC SWAP2 LOG2 POP POP POP POP POP JUMP JUMPDEST PUSH1 0x1 SLOAD PUSH1 0x1 PUSH1 0x1 PUSH1 0xA0 SHL SUB AND CALLER EQ PUSH2 0x7AB JUMPI PUSH1 0x40 MLOAD PUSH3 0x461BCD PUSH1 0xE5 SHL DUP2 MSTORE PUSH1 0x20 PUSH1 0x4 DUP3 ADD MSTORE PUSH1 0x16 PUSH1 0x24 DUP3 ADD MSTORE PUSH22 0x2737BA103A34329031B7B73A3930B1BA1037BBB732B9 PUSH1 0x51 SHL PUSH1 0x44 DUP3 ADD MSTORE PUSH1 0x64 ADD PUSH2 0x3D4 JUMP JUMPDEST PUSH1 0x40 DUP1 MLOAD DUP1 DUP3 ADD DUP3 MSTORE DUP4 DUP2 MSTORE PUSH1 0x20 DUP1 DUP3 ADD DUP5 DUP2 MSTORE PUSH1 0x1 PUSH1 0x1 PUSH1 0xA0 SHL SUB DUP8 AND PUSH1 0x0 DUP2 DUP2 MSTORE SWAP3 DUP4 SWAP1 MSTORE DUP5 DUP4 KECCAK256 SWAP4 MLOAD PUSH1 0xF DUP6 ADD SSTORE SWAP1 MLOAD PUSH1 0x10 SWAP1 SWAP4 ADD SWAP3 SWAP1 SWAP3 SSTORE SWAP2 MLOAD SWAP1 SWAP2 PUSH32 0xE1DDA2A662A12B367401EB9A8EEA1A64EAF52A0498289F48CECF72FC56BE5CDC SWAP2 LOG2 POP POP POP JUMP JUMPDEST DUP1 CALLDATALOAD PUSH1 0x1 PUSH1 0x1 PUSH1 0xA0 SHL SUB DUP2 AND DUP2 EQ PUSH2 0x82A JUMPI PUSH1 0x0 DUP1 REVERT JUMPDEST SWAP2 SWAP1 POP JUMP JUMPDEST PUSH1 0x0 PUSH1 0x20 DUP3 DUP5 SUB SLT ISZERO PUSH2 0x841 JUMPI PUSH1 0x0 DUP1 REVERT JUMPDEST PUSH2 0x84A DUP3 PUSH2 0x813 JUMP JUMPDEST SWAP4 SWAP3 POP POP POP JUMP JUMPDEST PUSH1 0x0 DUP1 PUSH1 0x0 DUP1 PUSH1 0x80 DUP6 DUP8 SUB SLT ISZERO PUSH2 0x867 JUMPI PUSH1 0x0 DUP1 REVERT JUMPDEST PUSH2 0x870 DUP6 PUSH2 0x813 JUMP JUMPDEST SWAP7 PUSH1 0x20 DUP7 ADD CALLDATALOAD SWAP7 POP PUSH1 0x40 DUP7 ADD CALLDATALOAD SWAP6 PUSH1 0x60 ADD CALLDATALOAD SWAP5 POP SWAP3 POP POP POP JUMP JUMPDEST DUP2 MLOAD DUP2 MSTORE PUSH1 0x20 DUP1 DUP4 ADD MLOAD SWAP1 DUP3 ADD MSTORE PUSH1 0x40 DUP1 DUP4 ADD MLOAD SWAP1 DUP3 ADD MSTORE PUSH1 0x60 DUP1 DUP4 ADD MLOAD SWAP1 DUP3 ADD MSTORE PUSH1 0x80 DUP2 ADD JUMPDEST SWAP3 SWAP2 POP POP JUMP JUMPDEST DUP2 MLOAD DUP2 MSTORE PUSH1 0x20 DUP1 DUP4 ADD MLOAD SWAP1 DUP3 ADD MSTORE PUSH1 0x40 DUP1 DUP4 ADD MLOAD SWAP1 DUP3 ADD MSTORE PUSH1 0x60 DUP2 ADD PUSH2 0x8B1 JUMP JUMPDEST PUSH1 0x0 DUP1 PUSH1 0x0 DUP1 PUSH1 0x0 PUSH1 0xA0 DUP7 DUP9 SUB SLT ISZERO PUSH2 0x8F0 JUMPI PUSH1 0x0 DUP1 REVERT JUMPDEST PUSH2 0x8F9 DUP7 PUSH2 0x813 JUMP JUMPDEST SWAP8 PUSH1 0x20 DUP8 ADD CALLDATALOAD SWAP8 POP PUSH1 0x40 DUP8 ADD CALLDATALOAD SWAP7 PUSH1 0x60 DUP2 ADD CALLDATALOAD SWAP7 POP PUSH1 0x80 ADD CALLDATALOAD SWAP5 POP SWAP3 POP POP POP JUMP JUMPDEST DUP2 MLOAD DUP2 MSTORE PUSH1 0x20 DUP1 DUP4 ADD MLOAD SWAP1 DUP3 ADD MSTORE PUSH1 0x40 DUP2 ADD PUSH2 0x8B1 JUMP JUMPDEST PUSH1 0x0 DUP1 PUSH1 0x0 PUSH1 0x60 DUP5 DUP7 SUB SLT ISZERO PUSH2 0x946 JUMPI PUSH1 0x0 DUP1 REVERT JUMPDEST PUSH2 0x94F DUP5 PUSH2 0x813 JUMP JUMPDEST SWAP6 PUSH1 0x20 DUP6 ADD CALLDATALOAD SWAP6 POP PUSH1 0x40 SWAP1 SWAP5 ADD CALLDATALOAD SWAP4 SWAP3 POP POP POP JUMP INVALID LOG2 PUSH5 0x6970667358 0x22 SLT KECCAK256 PUSH7 0x654FA3907C29D PUSH1 0x25 0xB3 EXTCODEHASH 0xCB 0x5F CREATE DELEGATECALL DUP9 LOG2 PUSH8 0xADFE6D66C3C1FCA8 0xEA 0xCE DUP3 0x23 0x4A PUSH5 0x736F6C6343 STOP ADDMOD GT STOP CALLER "
    },
    "gasEstimates": {
      "creation": {
        "codeDepositCost": "491600",
        "executionCost": "24759",
        "totalCost": "516359"
      },
      "external": {
        "getDaoActions(address)": "7124",
        "getDefiActions(address)": "9241",
        "getGeneralActions(address)": "4888",
        "getNftActions(address)": "9269",
        "owner()": "2360",
        "updateDaoActions(address,uint256,uint256,uint256)": "70225",
        "updateDefiActions(address,uint256,uint256,uint256,uint256)": "92376",
        "updateGeneralActions(address,uint256,uint256)": "48096",
        "updateNftActions(address,uint256,uint256,uint256,uint256)": "92359",
        "updateTokenActions(address,uint256,uint256,uint256,uint256)": "92404",
        "userScores(address)": "37082"
      }
    },
    "methodIdentifiers": {
      "getDaoActions(address)": "75f0d4df",
      "getDefiActions(address)": "3e41d17d",
      "getGeneralActions(address)": "e0c64a8f",
      "getNftActions(address)": "55db6f4b",
      "owner()": "8da5cb5b",
      "updateDaoActions(address,uint256,uint256,uint256)": "183cfcc8",
      "updateDefiActions(address,uint256,uint256,uint256,uint256)": "aa56a179",
      "updateGeneralActions(address,uint256,uint256)": "f2abb9dd",
      "updateNftActions(address,uint256,uint256,uint256,uint256)": "c306d1e8",
      "updateTokenActions(address,uint256,uint256,uint256,uint256)": "b86c4728",
      "userScores(address)": "1413d4c0"
    }
  },
  "storageLayout": {
    "storage": [
      {
        "astId": 61,
        "contract": "SocialScore.sol:SocialScore",
        "label": "userScores",
        "offset": 0,
        "slot": "0",
        "type": "t_mapping(t_address,t_struct(UserScore)56_storage)"
      },
      {
        "astId": 67,
        "contract": "SocialScore.sol:SocialScore",
        "label": "owner",
        "offset": 0,
        "slot": "1",
        "type": "t_address"
      }
    ],
    "types": {
      "t_address": {
        "encoding": "inplace",
        "label": "address",
        "numberOfBytes": "20"
      },
      "t_mapping(t_address,t_struct(UserScore)56_storage)": {
        "encoding": "mapping",
        "key": "t_address",
        "label": "mapping(address => struct SocialScore.UserScore)",
        "numberOfBytes": "32",
        "value": "t_struct(UserScore)56_storage"
      },
      "t_struct(DaoActions)17_storage": {
        "encoding": "inplace",
        "label": "struct SocialScore.DaoActions",
        "members": [
          {
            "astId": 12,
            "contract": "SocialScore.sol:SocialScore",
            "label": "approvals",
            "offset": 0,
            "slot": "0",
            "type": "t_uint256"
          },
          {
            "astId": 14,
            "contract": "SocialScore.sol:SocialScore",
            "label": "proposals_submitted",
            "offset": 0,
            "slot": "1",
            "type": "t_uint256"
          },
          {
            "astId": 16,
            "contract": "SocialScore.sol:SocialScore",
            "label": "votes",
            "offset": 0,
            "slot": "2",
            "type": "t_uint256"
          }
        ],
        "numberOfBytes": "96"
      },
      "t_struct(DefiActions)10_storage": {
        "encoding": "inplace",
        "label": "struct SocialScore.DefiActions",
        "members": [
          {
            "astId": 3,
            "contract": "SocialScore.sol:SocialScore",
            "label": "loans",
            "offset": 0,
            "slot": "0",
            "type": "t_uint256"
          },
          {
            "astId": 5,
            "contract": "SocialScore.sol:SocialScore",
            "label": "total_volume",
            "offset": 0,
            "slot": "1",
            "type": "t_uint256"
          },
          {
            "astId": 7,
            "contract": "SocialScore.sol:SocialScore",
            "label": "swaps",
            "offset": 0,
            "slot": "2",
            "type": "t_uint256"
          },
          {
            "astId": 9,
            "contract": "SocialScore.sol:SocialScore",
            "label": "repayments",
            "offset": 0,
            "slot": "3",
            "type": "t_uint256"
          }
        ],
        "numberOfBytes": "128"
      },
      "t_struct(GeneralActions)40_storage": {
        "encoding": "inplace",
        "label": "struct SocialScore.GeneralActions",
        "members": [
          {
            "astId": 37,
            "contract": "SocialScore.sol:SocialScore",
            "label": "transactions",
            "offset": 0,
            "slot": "0",
            "type": "t_uint256"
          },
          {
            "astId": 39,
            "contract": "SocialScore.sol:SocialScore",
            "label": "unique_addresses_interacted",
            "offset": 0,
            "slot": "1",
            "type": "t_uint256"
          }
        ],
        "numberOfBytes": "64"
      },
      "t_struct(NftActions)26_storage": {
        "encoding": "inplace",
        "label": "struct SocialScore.NftActions",
        "members": [
          {
            "astId": 19,
            "contract": "SocialScore.sol:SocialScore",
            "label": "minted",
            "offset": 0,
            "slot": "0",
            "type": "t_uint256"
          },
          {
            "astId": 21,
            "contract": "SocialScore.sol:SocialScore",
            "label": "purchased",
            "offset": 0,
            "slot": "1",
            "type": "t_uint256"
          },
          {
            "astId": 23,
            "contract": "SocialScore.sol:SocialScore",
            "label": "sold",
            "offset": 0,
            "slot": "2",
            "type": "t_uint256"
          },
          {
            "astId": 25,
            "contract": "SocialScore.sol:SocialScore",
            "label": "held",
            "offset": 0,
            "slot": "3",
            "type": "t_uint256"
          }
        ],
        "numberOfBytes": "128"
      },
      "t_struct(TokenActions)35_storage": {
        "encoding": "inplace",
        "label": "struct SocialScore.TokenActions",
        "members": [
          {
            "astId": 28,
            "contract": "SocialScore.sol:SocialScore",
            "label": "total_volume",
            "offset": 0,
            "slot": "0",
            "type": "t_uint256"
          },
          {
            "astId": 30,
            "contract": "SocialScore.sol:SocialScore",
            "label": "purchased",
            "offset": 0,
            "slot": "1",
            "type": "t_uint256"
          },
          {
            "astId": 32,
            "contract": "SocialScore.sol:SocialScore",
            "label": "sold",
            "offset": 0,
            "slot": "2",
            "type": "t_uint256"
          },
          {
            "astId": 34,
            "contract": "SocialScore.sol:SocialScore",
            "label": "held",
            "offset": 0,
            "slot": "3",
            "type": "t_uint256"
          }
        ],
        "numberOfBytes": "128"
      },
      "t_struct(UserScore)56_storage": {
        "encoding": "inplace",
        "label": "struct SocialScore.UserScore",
        "members": [
          {
            "astId": 43,
            "contract": "SocialScore.sol:SocialScore",
            "label": "defi_actions",
            "offset": 0,
            "slot": "0",
            "type": "t_struct(DefiActions)10_storage"
          },
          {
            "astId": 46,
            "contract": "SocialScore.sol:SocialScore",
            "label": "dao_actions",
            "offset": 0,
            "slot": "4",
            "type": "t_struct(DaoActions)17_storage"
          },
          {
            "astId": 49,
            "contract": "SocialScore.sol:SocialScore",
            "label": "token_actions",
            "offset": 0,
            "slot": "7",
            "type": "t_struct(TokenActions)35_storage"
          },
          {
            "astId": 52,
            "contract": "SocialScore.sol:SocialScore",
            "label": "nft_actions",
            "offset": 0,
            "slot": "11",
            "type": "t_struct(NftActions)26_storage"
          },
          {
            "astId": 55,
            "contract": "SocialScore.sol:SocialScore",
            "label": "general_actions",
            "offset": 0,
            "slot": "15",
            "type": "t_struct(GeneralActions)40_storage"
          }
        ],
        "numberOfBytes": "544"
      },
      "t_uint256": {
        "encoding": "inplace",
        "label": "uint256",
        "numberOfBytes": "32"
      }
    }
  },
  "userdoc": {
    "kind": "user",
    "methods": {},
    "version": 1
  }
}